{
	"src/UnfuckGPTPriceData.sol": {
		"UnfuckGPTPriceData": {
			"abi": [
				{
					"inputs": [],
					"stateMutability": "nonpayable",
					"type": "constructor"
				},
				{
					"anonymous": false,
					"inputs": [
						{
							"indexed": true,
							"internalType": "address",
							"name": "previousOwner",
							"type": "address"
						},
						{
							"indexed": true,
							"internalType": "address",
							"name": "newOwner",
							"type": "address"
						}
					],
					"name": "OwnershipTransferred",
					"type": "event"
				},
				{
					"inputs": [
						{
							"internalType": "uint256",
							"name": "",
							"type": "uint256"
						}
					],
					"name": "currentPriceInfo",
					"outputs": [
						{
							"internalType": "uint256",
							"name": "ftsoIndex",
							"type": "uint256"
						},
						{
							"internalType": "uint256",
							"name": "price",
							"type": "uint256"
						},
						{
							"internalType": "uint256",
							"name": "decimals",
							"type": "uint256"
						},
						{
							"internalType": "uint256",
							"name": "timestamp",
							"type": "uint256"
						}
					],
					"stateMutability": "view",
					"type": "function"
				},
				{
					"inputs": [
						{
							"internalType": "string",
							"name": "_symbol",
							"type": "string"
						}
					],
					"name": "latestPriceForToken",
					"outputs": [
						{
							"components": [
								{
									"internalType": "uint256",
									"name": "ftsoIndex",
									"type": "uint256"
								},
								{
									"internalType": "uint256",
									"name": "price",
									"type": "uint256"
								},
								{
									"internalType": "uint256",
									"name": "decimals",
									"type": "uint256"
								},
								{
									"internalType": "uint256",
									"name": "timestamp",
									"type": "uint256"
								}
							],
							"internalType": "struct IFtsoRegistry.PriceInfo",
							"name": "",
							"type": "tuple"
						}
					],
					"stateMutability": "view",
					"type": "function"
				},
				{
					"inputs": [],
					"name": "owner",
					"outputs": [
						{
							"internalType": "address",
							"name": "",
							"type": "address"
						}
					],
					"stateMutability": "view",
					"type": "function"
				},
				{
					"inputs": [],
					"name": "priceInfosCount",
					"outputs": [
						{
							"internalType": "uint256",
							"name": "",
							"type": "uint256"
						}
					],
					"stateMutability": "view",
					"type": "function"
				},
				{
					"inputs": [],
					"name": "refreshPrices",
					"outputs": [],
					"stateMutability": "nonpayable",
					"type": "function"
				},
				{
					"inputs": [],
					"name": "renounceOwnership",
					"outputs": [],
					"stateMutability": "nonpayable",
					"type": "function"
				},
				{
					"inputs": [
						{
							"internalType": "address",
							"name": "newOwner",
							"type": "address"
						}
					],
					"name": "transferOwnership",
					"outputs": [],
					"stateMutability": "nonpayable",
					"type": "function"
				}
			],
			"devdoc": {
				"kind": "dev",
				"methods": {
					"owner()": {
						"details": "Returns the address of the current owner."
					},
					"renounceOwnership()": {
						"details": "Leaves the contract without owner. It will not be possible to call `onlyOwner` functions. Can only be called by the current owner. NOTE: Renouncing ownership will leave the contract without an owner, thereby disabling any functionality that is only available to the owner."
					},
					"transferOwnership(address)": {
						"details": "Transfers ownership of the contract to a new account (`newOwner`). Can only be called by the current owner."
					}
				},
				"version": 1
			},
			"evm": {
				"assembly": "    /* \"src/UnfuckGPTPriceData.sol\":495:1732  contract UnfuckGPTPriceData is Ownable {... */\n  mstore(0x40, 0x80)\n    /* \"src/UnfuckGPTPriceData.sol\":648:745  IFlareContractRegistry contractRegistry =... */\n  0x01\n  dup1\n  sload\n  not(sub(shl(0xa0, 0x01), 0x01))\n  and\n    /* \"src/UnfuckGPTPriceData.sol\":599:641  0xaD67FE66660Fb8dFE9d6b1b4240d8650e30F6019 */\n  0xad67fe66660fb8dfe9d6b1b4240d8650e30f6019\n    /* \"src/UnfuckGPTPriceData.sol\":648:745  IFlareContractRegistry contractRegistry =... */\n  or\n  swap1\n  sstore\n    /* \"src/UnfuckGPTPriceData.sol\":863:879  constructor() {} */\n  callvalue\n  dup1\n  iszero\n  tag_1\n  jumpi\n  0x00\n  dup1\n  revert\ntag_1:\n  pop\n    /* \"lib/openzeppelin-contracts/contracts/access/Ownable.sol\":936:968  _transferOwnership(_msgSender()) */\n  tag_5\n    /* \"lib/openzeppelin-contracts/contracts/utils/Context.sol\":719:729  msg.sender */\n  caller\n    /* \"lib/openzeppelin-contracts/contracts/access/Ownable.sol\":936:954  _transferOwnership */\n  tag_8\n    /* \"lib/openzeppelin-contracts/contracts/access/Ownable.sol\":936:968  _transferOwnership(_msgSender()) */\n  jump\t// in\ntag_5:\n    /* \"src/UnfuckGPTPriceData.sol\":495:1732  contract UnfuckGPTPriceData is Ownable {... */\n  jump(tag_10)\n    /* \"lib/openzeppelin-contracts/contracts/access/Ownable.sol\":2426:2613  function _transferOwnership(address newOwner) internal virtual {... */\ntag_8:\n    /* \"lib/openzeppelin-contracts/contracts/access/Ownable.sol\":2499:2515  address oldOwner */\n  0x00\n    /* \"lib/openzeppelin-contracts/contracts/access/Ownable.sol\":2518:2524  _owner */\n  dup1\n  sload\n  sub(shl(0xa0, 0x01), 0x01)\n    /* \"lib/openzeppelin-contracts/contracts/access/Ownable.sol\":2534:2551  _owner = newOwner */\n  dup4\n  dup2\n  and\n  not(sub(shl(0xa0, 0x01), 0x01))\n  dup4\n  and\n  dup2\n  or\n  dup5\n  sstore\n    /* \"lib/openzeppelin-contracts/contracts/access/Ownable.sol\":2566:2606  OwnershipTransferred(oldOwner, newOwner) */\n  mload(0x40)\n    /* \"lib/openzeppelin-contracts/contracts/access/Ownable.sol\":2518:2524  _owner */\n  swap2\n  swap1\n  swap3\n  and\n  swap3\n  dup4\n  swap2\n    /* \"lib/openzeppelin-contracts/contracts/access/Ownable.sol\":2566:2606  OwnershipTransferred(oldOwner, newOwner) */\n  0x8be0079c531659141344cd1fd0a4f28419497f9722a3daafe3b4186f6b6457e0\n  swap2\n    /* \"lib/openzeppelin-contracts/contracts/access/Ownable.sol\":2499:2515  address oldOwner */\n  swap1\n    /* \"lib/openzeppelin-contracts/contracts/access/Ownable.sol\":2566:2606  OwnershipTransferred(oldOwner, newOwner) */\n  log3\n    /* \"lib/openzeppelin-contracts/contracts/access/Ownable.sol\":2489:2613  {... */\n  pop\n    /* \"lib/openzeppelin-contracts/contracts/access/Ownable.sol\":2426:2613  function _transferOwnership(address newOwner) internal virtual {... */\n  pop\n  jump\t// out\n    /* \"src/UnfuckGPTPriceData.sol\":495:1732  contract UnfuckGPTPriceData is Ownable {... */\ntag_10:\n  dataSize(sub_0)\n  dup1\n  dataOffset(sub_0)\n  0x00\n  codecopy\n  0x00\n  return\nstop\n\nsub_0: assembly {\n        /* \"src/UnfuckGPTPriceData.sol\":495:1732  contract UnfuckGPTPriceData is Ownable {... */\n      mstore(0x40, 0x80)\n      callvalue\n      dup1\n      iszero\n      tag_1\n      jumpi\n      0x00\n      dup1\n      revert\n    tag_1:\n      pop\n      jumpi(tag_2, lt(calldatasize, 0x04))\n      shr(0xe0, calldataload(0x00))\n      dup1\n      0x3d44abf1\n      gt\n      tag_10\n      jumpi\n      dup1\n      0x3d44abf1\n      eq\n      tag_6\n      jumpi\n      dup1\n      0x715018a6\n      eq\n      tag_7\n      jumpi\n      dup1\n      0x8da5cb5b\n      eq\n      tag_8\n      jumpi\n      dup1\n      0xf2fde38b\n      eq\n      tag_9\n      jumpi\n      0x00\n      dup1\n      revert\n    tag_10:\n      dup1\n      0x068b6bd5\n      eq\n      tag_3\n      jumpi\n      dup1\n      0x16638d59\n      eq\n      tag_4\n      jumpi\n      dup1\n      0x34ece79d\n      eq\n      tag_5\n      jumpi\n    tag_2:\n      0x00\n      dup1\n      revert\n        /* \"src/UnfuckGPTPriceData.sol\":885:1364  function refreshPrices() external onlyOwner {... */\n    tag_3:\n      tag_11\n      tag_12\n      jump\t// in\n    tag_11:\n      stop\n        /* \"src/UnfuckGPTPriceData.sol\":826:856  uint256 public priceInfosCount */\n    tag_4:\n      tag_13\n      sload(0x03)\n      dup2\n      jump\n    tag_13:\n      mload(0x40)\n        /* \"#utility.yul\":160:185   */\n      swap1\n      dup2\n      mstore\n        /* \"#utility.yul\":148:150   */\n      0x20\n        /* \"#utility.yul\":133:151   */\n      add\n        /* \"src/UnfuckGPTPriceData.sol\":826:856  uint256 public priceInfosCount */\n    tag_15:\n      mload(0x40)\n      dup1\n      swap2\n      sub\n      swap1\n      return\n        /* \"src/UnfuckGPTPriceData.sol\":752:819  mapping(uint256 => IFtsoRegistry.PriceInfo) public currentPriceInfo */\n    tag_5:\n      tag_17\n      tag_18\n      calldatasize\n      0x04\n      tag_19\n      jump\t// in\n    tag_18:\n      0x02\n      0x20\n      dup2\n      swap1\n      mstore\n      0x00\n      swap2\n      dup3\n      mstore\n      0x40\n      swap1\n      swap2\n      keccak256\n      dup1\n      sload\n      0x01\n      dup3\n      add\n      sload\n      swap3\n      dup3\n      add\n      sload\n      0x03\n      swap1\n      swap3\n      add\n      sload\n      swap1\n      swap3\n      swap2\n      swap1\n      dup5\n      jump\n    tag_17:\n      0x40\n      dup1\n      mload\n        /* \"#utility.yul\":612:637   */\n      swap5\n      dup6\n      mstore\n        /* \"#utility.yul\":668:670   */\n      0x20\n        /* \"#utility.yul\":653:671   */\n      dup6\n      add\n        /* \"#utility.yul\":646:680   */\n      swap4\n      swap1\n      swap4\n      mstore\n        /* \"#utility.yul\":696:714   */\n      swap2\n      dup4\n      add\n        /* \"#utility.yul\":689:723   */\n      mstore\n        /* \"#utility.yul\":754:756   */\n      0x60\n        /* \"#utility.yul\":739:757   */\n      dup3\n      add\n        /* \"#utility.yul\":732:766   */\n      mstore\n        /* \"#utility.yul\":599:602   */\n      0x80\n        /* \"#utility.yul\":584:603   */\n      add\n        /* \"src/UnfuckGPTPriceData.sol\":752:819  mapping(uint256 => IFtsoRegistry.PriceInfo) public currentPriceInfo */\n      tag_15\n        /* \"#utility.yul\":381:772   */\n      jump\n        /* \"src/UnfuckGPTPriceData.sol\":1370:1730  function latestPriceForToken(... */\n    tag_6:\n      tag_23\n      tag_24\n      calldatasize\n      0x04\n      tag_25\n      jump\t// in\n    tag_24:\n      tag_26\n      jump\t// in\n    tag_23:\n      mload(0x40)\n      tag_15\n      swap2\n      swap1\n        /* \"#utility.yul\":2433:2446   */\n      dup2\n      mload\n        /* \"#utility.yul\":2415:2447   */\n      dup2\n      mstore\n        /* \"#utility.yul\":2503:2507   */\n      0x20\n        /* \"#utility.yul\":2491:2508   */\n      dup1\n      dup4\n      add\n        /* \"#utility.yul\":2485:2509   */\n      mload\n        /* \"#utility.yul\":2463:2483   */\n      swap1\n      dup3\n      add\n        /* \"#utility.yul\":2456:2510   */\n      mstore\n        /* \"#utility.yul\":2566:2570   */\n      0x40\n        /* \"#utility.yul\":2554:2571   */\n      dup1\n      dup4\n      add\n        /* \"#utility.yul\":2548:2572   */\n      mload\n        /* \"#utility.yul\":2526:2546   */\n      swap1\n      dup3\n      add\n        /* \"#utility.yul\":2519:2573   */\n      mstore\n        /* \"#utility.yul\":2629:2633   */\n      0x60\n        /* \"#utility.yul\":2617:2634   */\n      swap2\n      dup3\n      add\n        /* \"#utility.yul\":2611:2635   */\n      mload\n        /* \"#utility.yul\":2589:2609   */\n      swap2\n      dup2\n      add\n        /* \"#utility.yul\":2582:2636   */\n      swap2\n      swap1\n      swap2\n      mstore\n        /* \"#utility.yul\":2402:2405   */\n      0x80\n        /* \"#utility.yul\":2387:2406   */\n      add\n      swap1\n        /* \"#utility.yul\":2216:2642   */\n      jump\n        /* \"lib/openzeppelin-contracts/contracts/access/Ownable.sol\":1824:1925  function renounceOwnership() public virtual onlyOwner {... */\n    tag_7:\n      tag_11\n      tag_30\n      jump\t// in\n        /* \"lib/openzeppelin-contracts/contracts/access/Ownable.sol\":1201:1286  function owner() public view virtual returns (address) {... */\n    tag_8:\n        /* \"lib/openzeppelin-contracts/contracts/access/Ownable.sol\":1247:1254  address */\n      0x00\n        /* \"lib/openzeppelin-contracts/contracts/access/Ownable.sol\":1273:1279  _owner */\n      sload\n        /* \"lib/openzeppelin-contracts/contracts/access/Ownable.sol\":1201:1286  function owner() public view virtual returns (address) {... */\n      mload(0x40)\n      sub(shl(0xa0, 0x01), 0x01)\n        /* \"lib/openzeppelin-contracts/contracts/access/Ownable.sol\":1273:1279  _owner */\n      swap1\n      swap2\n      and\n        /* \"#utility.yul\":2793:2844   */\n      dup2\n      mstore\n        /* \"#utility.yul\":2781:2783   */\n      0x20\n        /* \"#utility.yul\":2766:2784   */\n      add\n        /* \"lib/openzeppelin-contracts/contracts/access/Ownable.sol\":1201:1286  function owner() public view virtual returns (address) {... */\n      tag_15\n        /* \"#utility.yul\":2647:2850   */\n      jump\n        /* \"lib/openzeppelin-contracts/contracts/access/Ownable.sol\":2074:2272  function transferOwnership(address newOwner) public virtual onlyOwner {... */\n    tag_9:\n      tag_11\n      tag_36\n      calldatasize\n      0x04\n      tag_37\n      jump\t// in\n    tag_36:\n      tag_38\n      jump\t// in\n        /* \"src/UnfuckGPTPriceData.sol\":885:1364  function refreshPrices() external onlyOwner {... */\n    tag_12:\n        /* \"lib/openzeppelin-contracts/contracts/access/Ownable.sol\":1094:1107  _checkOwner() */\n      tag_40\n        /* \"lib/openzeppelin-contracts/contracts/access/Ownable.sol\":1094:1105  _checkOwner */\n      tag_41\n        /* \"lib/openzeppelin-contracts/contracts/access/Ownable.sol\":1094:1107  _checkOwner() */\n      jump\t// in\n    tag_40:\n        /* \"src/UnfuckGPTPriceData.sol\":995:1011  contractRegistry */\n      sload(0x01)\n        /* \"src/UnfuckGPTPriceData.sol\":995:1052  contractRegistry.getContractAddressByName(\"FtsoRegistry\") */\n      mload(0x40)\n      shl(0xe1, 0x413b07e5)\n      dup2\n      mstore\n        /* \"#utility.yul\":3445:3447   */\n      0x20\n        /* \"src/UnfuckGPTPriceData.sol\":995:1052  contractRegistry.getContractAddressByName(\"FtsoRegistry\") */\n      0x04\n      dup3\n      add\n        /* \"#utility.yul\":3427:3448   */\n      mstore\n        /* \"#utility.yul\":3484:3486   */\n      0x0c\n        /* \"#utility.yul\":3464:3482   */\n      0x24\n      dup3\n      add\n        /* \"#utility.yul\":3457:3487   */\n      mstore\n      shl(0xa0, 0x4674736f5265676973747279)\n        /* \"#utility.yul\":3503:3521   */\n      0x44\n      dup3\n      add\n        /* \"#utility.yul\":3496:3538   */\n      mstore\n        /* \"src/UnfuckGPTPriceData.sol\":939:965  IFtsoRegistry ftsoRegistry */\n      0x00\n      swap2\n      sub(shl(0xa0, 0x01), 0x01)\n        /* \"src/UnfuckGPTPriceData.sol\":995:1011  contractRegistry */\n      and\n      swap1\n        /* \"src/UnfuckGPTPriceData.sol\":995:1036  contractRegistry.getContractAddressByName */\n      0x82760fca\n      swap1\n        /* \"#utility.yul\":3555:3573   */\n      0x64\n      add\n        /* \"src/UnfuckGPTPriceData.sol\":995:1052  contractRegistry.getContractAddressByName(\"FtsoRegistry\") */\n      0x20\n      mload(0x40)\n      dup1\n      dup4\n      sub\n      dup2\n      dup7\n      gas\n      staticcall\n      iszero\n      dup1\n      iszero\n      tag_46\n      jumpi\n      returndatasize\n      0x00\n      dup1\n      returndatacopy\n      revert(0x00, returndatasize)\n    tag_46:\n      pop\n      pop\n      pop\n      pop\n      mload(0x40)\n      returndatasize\n      not(0x1f)\n      0x1f\n      dup3\n      add\n      and\n      dup3\n      add\n      dup1\n      0x40\n      mstore\n      pop\n      dup2\n      add\n      swap1\n      tag_47\n      swap2\n      swap1\n      tag_48\n      jump\t// in\n    tag_47:\n        /* \"src/UnfuckGPTPriceData.sol\":939:1062  IFtsoRegistry ftsoRegistry = IFtsoRegistry(... */\n      swap1\n      pop\n        /* \"src/UnfuckGPTPriceData.sol\":1073:1117  IFtsoRegistry.PriceInfo[] memory _priceInfos */\n      0x00\n        /* \"src/UnfuckGPTPriceData.sol\":1120:1132  ftsoRegistry */\n      dup2\n      sub(shl(0xa0, 0x01), 0x01)\n        /* \"src/UnfuckGPTPriceData.sol\":1120:1165  ftsoRegistry... */\n      and\n      0x58f9296f\n        /* \"src/UnfuckGPTPriceData.sol\":1120:1167  ftsoRegistry... */\n      mload(0x40)\n      dup2\n      0xffffffff\n      and\n      0xe0\n      shl\n      dup2\n      mstore\n      0x04\n      add\n      0x00\n      mload(0x40)\n      dup1\n      dup4\n      sub\n      dup2\n      dup7\n      gas\n      staticcall\n      iszero\n      dup1\n      iszero\n      tag_50\n      jumpi\n      returndatasize\n      0x00\n      dup1\n      returndatacopy\n      revert(0x00, returndatasize)\n    tag_50:\n      pop\n      pop\n      pop\n      pop\n      mload(0x40)\n      returndatasize\n      0x00\n      dup3\n      returndatacopy\n      0x1f\n      returndatasize\n      swap1\n      dup2\n      add\n      not(0x1f)\n      and\n      dup3\n      add\n      0x40\n      mstore\n      tag_51\n      swap2\n      swap1\n      dup2\n      add\n      swap1\n      tag_52\n      jump\t// in\n    tag_51:\n        /* \"src/UnfuckGPTPriceData.sol\":1196:1214  _priceInfos.length */\n      dup1\n      mload\n        /* \"src/UnfuckGPTPriceData.sol\":1178:1193  priceInfosCount */\n      0x03\n        /* \"src/UnfuckGPTPriceData.sol\":1178:1214  priceInfosCount = _priceInfos.length */\n      sstore\n        /* \"src/UnfuckGPTPriceData.sol\":1073:1167  IFtsoRegistry.PriceInfo[] memory _priceInfos = ftsoRegistry... */\n      swap1\n      pop\n        /* \"src/UnfuckGPTPriceData.sol\":1230:1239  uint256 i */\n      0x00\n        /* \"src/UnfuckGPTPriceData.sol\":1225:1358  for (uint256 i = 0; i < _priceInfos.length; i++) {... */\n    tag_53:\n        /* \"src/UnfuckGPTPriceData.sol\":1249:1260  _priceInfos */\n      dup2\n        /* \"src/UnfuckGPTPriceData.sol\":1249:1267  _priceInfos.length */\n      mload\n        /* \"src/UnfuckGPTPriceData.sol\":1245:1246  i */\n      dup2\n        /* \"src/UnfuckGPTPriceData.sol\":1245:1267  i < _priceInfos.length */\n      lt\n        /* \"src/UnfuckGPTPriceData.sol\":1225:1358  for (uint256 i = 0; i < _priceInfos.length; i++) {... */\n      iszero\n      tag_54\n      jumpi\n        /* \"src/UnfuckGPTPriceData.sol\":1333:1344  _priceInfos */\n      dup2\n        /* \"src/UnfuckGPTPriceData.sol\":1345:1346  i */\n      dup2\n        /* \"src/UnfuckGPTPriceData.sol\":1333:1347  _priceInfos[i] */\n      dup2\n      mload\n      dup2\n      lt\n      tag_57\n      jumpi\n      tag_57\n      tag_58\n      jump\t// in\n    tag_57:\n      0x20\n      mul\n      0x20\n      add\n      add\n      mload\n        /* \"src/UnfuckGPTPriceData.sol\":1288:1304  currentPriceInfo */\n      0x02\n        /* \"src/UnfuckGPTPriceData.sol\":1288:1330  currentPriceInfo[_priceInfos[i].ftsoIndex] */\n      0x00\n        /* \"src/UnfuckGPTPriceData.sol\":1305:1316  _priceInfos */\n      dup5\n        /* \"src/UnfuckGPTPriceData.sol\":1317:1318  i */\n      dup5\n        /* \"src/UnfuckGPTPriceData.sol\":1305:1319  _priceInfos[i] */\n      dup2\n      mload\n      dup2\n      lt\n      tag_60\n      jumpi\n      tag_60\n      tag_58\n      jump\t// in\n    tag_60:\n      0x20\n      mul\n      0x20\n      add\n      add\n      mload\n        /* \"src/UnfuckGPTPriceData.sol\":1305:1329  _priceInfos[i].ftsoIndex */\n      0x00\n      add\n      mload\n        /* \"src/UnfuckGPTPriceData.sol\":1288:1330  currentPriceInfo[_priceInfos[i].ftsoIndex] */\n      dup2\n      mstore\n      0x20\n      add\n      swap1\n      dup2\n      mstore\n      0x20\n      add\n      0x00\n      keccak256\n        /* \"src/UnfuckGPTPriceData.sol\":1288:1347  currentPriceInfo[_priceInfos[i].ftsoIndex] = _priceInfos[i] */\n      0x00\n      dup3\n      add\n      mload\n      dup2\n      0x00\n      add\n      sstore\n      0x20\n      dup3\n      add\n      mload\n      dup2\n      0x01\n      add\n      sstore\n      0x40\n      dup3\n      add\n      mload\n      dup2\n      0x02\n      add\n      sstore\n      0x60\n      dup3\n      add\n      mload\n      dup2\n      0x03\n      add\n      sstore\n      swap1\n      pop\n      pop\n        /* \"src/UnfuckGPTPriceData.sol\":1269:1272  i++ */\n      dup1\n      dup1\n      tag_61\n      swap1\n      tag_62\n      jump\t// in\n    tag_61:\n      swap2\n      pop\n      pop\n        /* \"src/UnfuckGPTPriceData.sol\":1225:1358  for (uint256 i = 0; i < _priceInfos.length; i++) {... */\n      jump(tag_53)\n    tag_54:\n      pop\n        /* \"src/UnfuckGPTPriceData.sol\":929:1364  {... */\n      pop\n      pop\n        /* \"src/UnfuckGPTPriceData.sol\":885:1364  function refreshPrices() external onlyOwner {... */\n      jump\t// out\n        /* \"src/UnfuckGPTPriceData.sol\":1370:1730  function latestPriceForToken(... */\n    tag_26:\n        /* \"src/UnfuckGPTPriceData.sol\":1459:1489  IFtsoRegistry.PriceInfo memory */\n      tag_63\n      mload(0x40)\n      dup1\n      0x80\n      add\n      0x40\n      mstore\n      dup1\n      0x00\n      dup2\n      mstore\n      0x20\n      add\n      0x00\n      dup2\n      mstore\n      0x20\n      add\n      0x00\n      dup2\n      mstore\n      0x20\n      add\n      0x00\n      dup2\n      mstore\n      pop\n      swap1\n      jump\n    tag_63:\n        /* \"src/UnfuckGPTPriceData.sol\":1558:1574  contractRegistry */\n      sload(0x01)\n        /* \"src/UnfuckGPTPriceData.sol\":1558:1615  contractRegistry.getContractAddressByName(\"FtsoRegistry\") */\n      mload(0x40)\n      shl(0xe1, 0x413b07e5)\n      dup2\n      mstore\n        /* \"#utility.yul\":3445:3447   */\n      0x20\n        /* \"src/UnfuckGPTPriceData.sol\":1558:1615  contractRegistry.getContractAddressByName(\"FtsoRegistry\") */\n      0x04\n      dup3\n      add\n        /* \"#utility.yul\":3427:3448   */\n      mstore\n        /* \"#utility.yul\":3484:3486   */\n      0x0c\n        /* \"#utility.yul\":3464:3482   */\n      0x24\n      dup3\n      add\n        /* \"#utility.yul\":3457:3487   */\n      mstore\n      shl(0xa0, 0x4674736f5265676973747279)\n        /* \"#utility.yul\":3503:3521   */\n      0x44\n      dup3\n      add\n        /* \"#utility.yul\":3496:3538   */\n      mstore\n        /* \"src/UnfuckGPTPriceData.sol\":1502:1528  IFtsoRegistry ftsoRegistry */\n      0x00\n      swap2\n      sub(shl(0xa0, 0x01), 0x01)\n        /* \"src/UnfuckGPTPriceData.sol\":1558:1574  contractRegistry */\n      and\n      swap1\n        /* \"src/UnfuckGPTPriceData.sol\":1558:1599  contractRegistry.getContractAddressByName */\n      0x82760fca\n      swap1\n        /* \"#utility.yul\":3555:3573   */\n      0x64\n      add\n        /* \"src/UnfuckGPTPriceData.sol\":1558:1615  contractRegistry.getContractAddressByName(\"FtsoRegistry\") */\n      0x20\n      mload(0x40)\n      dup1\n      dup4\n      sub\n      dup2\n      dup7\n      gas\n      staticcall\n      iszero\n      dup1\n      iszero\n      tag_68\n      jumpi\n      returndatasize\n      0x00\n      dup1\n      returndatacopy\n      revert(0x00, returndatasize)\n    tag_68:\n      pop\n      pop\n      pop\n      pop\n      mload(0x40)\n      returndatasize\n      not(0x1f)\n      0x1f\n      dup3\n      add\n      and\n      dup3\n      add\n      dup1\n      0x40\n      mstore\n      pop\n      dup2\n      add\n      swap1\n      tag_69\n      swap2\n      swap1\n      tag_48\n      jump\t// in\n    tag_69:\n        /* \"src/UnfuckGPTPriceData.sol\":1502:1625  IFtsoRegistry ftsoRegistry = IFtsoRegistry(... */\n      swap1\n      pop\n        /* \"src/UnfuckGPTPriceData.sol\":1635:1647  uint256 _idx */\n      0x00\n        /* \"src/UnfuckGPTPriceData.sol\":1650:1662  ftsoRegistry */\n      dup2\n      sub(shl(0xa0, 0x01), 0x01)\n        /* \"src/UnfuckGPTPriceData.sol\":1650:1675  ftsoRegistry.getFtsoIndex */\n      and\n      0xe848da30\n        /* \"src/UnfuckGPTPriceData.sol\":1676:1683  _symbol */\n      dup6\n        /* \"src/UnfuckGPTPriceData.sol\":1650:1684  ftsoRegistry.getFtsoIndex(_symbol) */\n      mload(0x40)\n      dup3\n      0xffffffff\n      and\n      0xe0\n      shl\n      dup2\n      mstore\n      0x04\n      add\n      tag_70\n      swap2\n      swap1\n      tag_71\n      jump\t// in\n    tag_70:\n      0x20\n      mload(0x40)\n      dup1\n      dup4\n      sub\n      dup2\n      dup7\n      gas\n      staticcall\n      iszero\n      dup1\n      iszero\n      tag_73\n      jumpi\n      returndatasize\n      0x00\n      dup1\n      returndatacopy\n      revert(0x00, returndatasize)\n    tag_73:\n      pop\n      pop\n      pop\n      pop\n      mload(0x40)\n      returndatasize\n      not(0x1f)\n      0x1f\n      dup3\n      add\n      and\n      dup3\n      add\n      dup1\n      0x40\n      mstore\n      pop\n      dup2\n      add\n      swap1\n      tag_74\n      swap2\n      swap1\n      tag_75\n      jump\t// in\n    tag_74:\n        /* \"src/UnfuckGPTPriceData.sol\":1701:1723  currentPriceInfo[_idx] */\n      0x00\n      swap1\n      dup2\n      mstore\n        /* \"src/UnfuckGPTPriceData.sol\":1701:1717  currentPriceInfo */\n      0x02\n        /* \"src/UnfuckGPTPriceData.sol\":1701:1723  currentPriceInfo[_idx] */\n      0x20\n      dup2\n      dup2\n      mstore\n      0x40\n      swap3\n      dup4\n      swap1\n      keccak256\n        /* \"src/UnfuckGPTPriceData.sol\":1694:1723  return currentPriceInfo[_idx] */\n      dup4\n      mload\n      0x80\n      dup2\n      add\n      dup6\n      mstore\n      dup2\n      sload\n      dup2\n      mstore\n      0x01\n      dup3\n      add\n      sload\n      swap3\n      dup2\n      add\n      swap3\n      swap1\n      swap3\n      mstore\n      swap2\n      dup3\n      add\n      sload\n      swap3\n      dup2\n      add\n      swap3\n      swap1\n      swap3\n      mstore\n      0x03\n      add\n      sload\n      0x60\n      dup3\n      add\n      mstore\n      swap5\n        /* \"src/UnfuckGPTPriceData.sol\":1370:1730  function latestPriceForToken(... */\n      swap4\n      pop\n      pop\n      pop\n      pop\n      jump\t// out\n        /* \"lib/openzeppelin-contracts/contracts/access/Ownable.sol\":1824:1925  function renounceOwnership() public virtual onlyOwner {... */\n    tag_30:\n        /* \"lib/openzeppelin-contracts/contracts/access/Ownable.sol\":1094:1107  _checkOwner() */\n      tag_77\n        /* \"lib/openzeppelin-contracts/contracts/access/Ownable.sol\":1094:1105  _checkOwner */\n      tag_41\n        /* \"lib/openzeppelin-contracts/contracts/access/Ownable.sol\":1094:1107  _checkOwner() */\n      jump\t// in\n    tag_77:\n        /* \"lib/openzeppelin-contracts/contracts/access/Ownable.sol\":1888:1918  _transferOwnership(address(0)) */\n      tag_79\n        /* \"lib/openzeppelin-contracts/contracts/access/Ownable.sol\":1915:1916  0 */\n      0x00\n        /* \"lib/openzeppelin-contracts/contracts/access/Ownable.sol\":1888:1906  _transferOwnership */\n      tag_80\n        /* \"lib/openzeppelin-contracts/contracts/access/Ownable.sol\":1888:1918  _transferOwnership(address(0)) */\n      jump\t// in\n    tag_79:\n        /* \"lib/openzeppelin-contracts/contracts/access/Ownable.sol\":1824:1925  function renounceOwnership() public virtual onlyOwner {... */\n      jump\t// out\n        /* \"lib/openzeppelin-contracts/contracts/access/Ownable.sol\":2074:2272  function transferOwnership(address newOwner) public virtual onlyOwner {... */\n    tag_38:\n        /* \"lib/openzeppelin-contracts/contracts/access/Ownable.sol\":1094:1107  _checkOwner() */\n      tag_83\n        /* \"lib/openzeppelin-contracts/contracts/access/Ownable.sol\":1094:1105  _checkOwner */\n      tag_41\n        /* \"lib/openzeppelin-contracts/contracts/access/Ownable.sol\":1094:1107  _checkOwner() */\n      jump\t// in\n    tag_83:\n      sub(shl(0xa0, 0x01), 0x01)\n        /* \"lib/openzeppelin-contracts/contracts/access/Ownable.sol\":2162:2184  newOwner != address(0) */\n      dup2\n      and\n        /* \"lib/openzeppelin-contracts/contracts/access/Ownable.sol\":2154:2227  require(newOwner != address(0), \"Ownable: new owner is the zero address\") */\n      tag_85\n      jumpi\n      mload(0x40)\n      shl(0xe5, 0x461bcd)\n      dup2\n      mstore\n        /* \"#utility.yul\":6539:6541   */\n      0x20\n        /* \"lib/openzeppelin-contracts/contracts/access/Ownable.sol\":2154:2227  require(newOwner != address(0), \"Ownable: new owner is the zero address\") */\n      0x04\n      dup3\n      add\n        /* \"#utility.yul\":6521:6542   */\n      mstore\n        /* \"#utility.yul\":6578:6580   */\n      0x26\n        /* \"#utility.yul\":6558:6576   */\n      0x24\n      dup3\n      add\n        /* \"#utility.yul\":6551:6581   */\n      mstore\n        /* \"#utility.yul\":6617:6651   */\n      0x4f776e61626c653a206e6577206f776e657220697320746865207a65726f2061\n        /* \"#utility.yul\":6597:6615   */\n      0x44\n      dup3\n      add\n        /* \"#utility.yul\":6590:6652   */\n      mstore\n      shl(0xd0, 0x646472657373)\n        /* \"#utility.yul\":6668:6686   */\n      0x64\n      dup3\n      add\n        /* \"#utility.yul\":6661:6697   */\n      mstore\n        /* \"#utility.yul\":6714:6733   */\n      0x84\n      add\n        /* \"lib/openzeppelin-contracts/contracts/access/Ownable.sol\":2154:2227  require(newOwner != address(0), \"Ownable: new owner is the zero address\") */\n    tag_86:\n      mload(0x40)\n      dup1\n      swap2\n      sub\n      swap1\n      revert\n    tag_85:\n        /* \"lib/openzeppelin-contracts/contracts/access/Ownable.sol\":2237:2265  _transferOwnership(newOwner) */\n      tag_88\n        /* \"lib/openzeppelin-contracts/contracts/access/Ownable.sol\":2256:2264  newOwner */\n      dup2\n        /* \"lib/openzeppelin-contracts/contracts/access/Ownable.sol\":2237:2255  _transferOwnership */\n      tag_80\n        /* \"lib/openzeppelin-contracts/contracts/access/Ownable.sol\":2237:2265  _transferOwnership(newOwner) */\n      jump\t// in\n    tag_88:\n        /* \"lib/openzeppelin-contracts/contracts/access/Ownable.sol\":2074:2272  function transferOwnership(address newOwner) public virtual onlyOwner {... */\n      pop\n      jump\t// out\n        /* \"lib/openzeppelin-contracts/contracts/access/Ownable.sol\":1359:1489  function _checkOwner() internal view virtual {... */\n    tag_41:\n        /* \"lib/openzeppelin-contracts/contracts/access/Ownable.sol\":1247:1254  address */\n      0x00\n        /* \"lib/openzeppelin-contracts/contracts/access/Ownable.sol\":1273:1279  _owner */\n      sload\n      sub(shl(0xa0, 0x01), 0x01)\n      and\n        /* \"lib/openzeppelin-contracts/contracts/utils/Context.sol\":719:729  msg.sender */\n      caller\n        /* \"lib/openzeppelin-contracts/contracts/access/Ownable.sol\":1422:1445  owner() == _msgSender() */\n      eq\n        /* \"lib/openzeppelin-contracts/contracts/access/Ownable.sol\":1414:1482  require(owner() == _msgSender(), \"Ownable: caller is not the owner\") */\n      tag_79\n      jumpi\n      mload(0x40)\n      shl(0xe5, 0x461bcd)\n      dup2\n      mstore\n        /* \"#utility.yul\":6946:6948   */\n      0x20\n        /* \"lib/openzeppelin-contracts/contracts/access/Ownable.sol\":1414:1482  require(owner() == _msgSender(), \"Ownable: caller is not the owner\") */\n      0x04\n      dup3\n      add\n        /* \"#utility.yul\":6928:6949   */\n      dup2\n      swap1\n      mstore\n        /* \"#utility.yul\":6965:6983   */\n      0x24\n      dup3\n      add\n        /* \"#utility.yul\":6958:6988   */\n      mstore\n        /* \"#utility.yul\":7024:7058   */\n      0x4f776e61626c653a2063616c6c6572206973206e6f7420746865206f776e6572\n        /* \"#utility.yul\":7004:7022   */\n      0x44\n      dup3\n      add\n        /* \"#utility.yul\":6997:7059   */\n      mstore\n        /* \"#utility.yul\":7076:7094   */\n      0x64\n      add\n        /* \"lib/openzeppelin-contracts/contracts/access/Ownable.sol\":1414:1482  require(owner() == _msgSender(), \"Ownable: caller is not the owner\") */\n      tag_86\n        /* \"#utility.yul\":6744:7100   */\n      jump\n        /* \"lib/openzeppelin-contracts/contracts/access/Ownable.sol\":2426:2613  function _transferOwnership(address newOwner) internal virtual {... */\n    tag_80:\n        /* \"lib/openzeppelin-contracts/contracts/access/Ownable.sol\":2499:2515  address oldOwner */\n      0x00\n        /* \"lib/openzeppelin-contracts/contracts/access/Ownable.sol\":2518:2524  _owner */\n      dup1\n      sload\n      sub(shl(0xa0, 0x01), 0x01)\n        /* \"lib/openzeppelin-contracts/contracts/access/Ownable.sol\":2534:2551  _owner = newOwner */\n      dup4\n      dup2\n      and\n      not(sub(shl(0xa0, 0x01), 0x01))\n      dup4\n      and\n      dup2\n      or\n      dup5\n      sstore\n        /* \"lib/openzeppelin-contracts/contracts/access/Ownable.sol\":2566:2606  OwnershipTransferred(oldOwner, newOwner) */\n      mload(0x40)\n        /* \"lib/openzeppelin-contracts/contracts/access/Ownable.sol\":2518:2524  _owner */\n      swap2\n      swap1\n      swap3\n      and\n      swap3\n      dup4\n      swap2\n        /* \"lib/openzeppelin-contracts/contracts/access/Ownable.sol\":2566:2606  OwnershipTransferred(oldOwner, newOwner) */\n      0x8be0079c531659141344cd1fd0a4f28419497f9722a3daafe3b4186f6b6457e0\n      swap2\n        /* \"lib/openzeppelin-contracts/contracts/access/Ownable.sol\":2499:2515  address oldOwner */\n      swap1\n        /* \"lib/openzeppelin-contracts/contracts/access/Ownable.sol\":2566:2606  OwnershipTransferred(oldOwner, newOwner) */\n      log3\n        /* \"lib/openzeppelin-contracts/contracts/access/Ownable.sol\":2489:2613  {... */\n      pop\n        /* \"lib/openzeppelin-contracts/contracts/access/Ownable.sol\":2426:2613  function _transferOwnership(address newOwner) internal virtual {... */\n      pop\n      jump\t// out\n        /* \"#utility.yul\":196:376   */\n    tag_19:\n        /* \"#utility.yul\":255:261   */\n      0x00\n        /* \"#utility.yul\":308:310   */\n      0x20\n        /* \"#utility.yul\":296:305   */\n      dup3\n        /* \"#utility.yul\":287:294   */\n      dup5\n        /* \"#utility.yul\":283:306   */\n      sub\n        /* \"#utility.yul\":279:311   */\n      slt\n        /* \"#utility.yul\":276:328   */\n      iszero\n      tag_105\n      jumpi\n        /* \"#utility.yul\":324:325   */\n      0x00\n        /* \"#utility.yul\":321:322   */\n      dup1\n        /* \"#utility.yul\":314:326   */\n      revert\n        /* \"#utility.yul\":276:328   */\n    tag_105:\n      pop\n        /* \"#utility.yul\":347:370   */\n      calldataload\n      swap2\n        /* \"#utility.yul\":196:376   */\n      swap1\n      pop\n      jump\t// out\n        /* \"#utility.yul\":777:904   */\n    tag_98:\n        /* \"#utility.yul\":838:848   */\n      0x4e487b71\n        /* \"#utility.yul\":833:836   */\n      0xe0\n        /* \"#utility.yul\":829:849   */\n      shl\n        /* \"#utility.yul\":826:827   */\n      0x00\n        /* \"#utility.yul\":819:850   */\n      mstore\n        /* \"#utility.yul\":869:873   */\n      0x41\n        /* \"#utility.yul\":866:867   */\n      0x04\n        /* \"#utility.yul\":859:874   */\n      mstore\n        /* \"#utility.yul\":893:897   */\n      0x24\n        /* \"#utility.yul\":890:891   */\n      0x00\n        /* \"#utility.yul\":883:898   */\n      revert\n        /* \"#utility.yul\":909:1162   */\n    tag_99:\n        /* \"#utility.yul\":981:983   */\n      0x40\n        /* \"#utility.yul\":975:984   */\n      mload\n        /* \"#utility.yul\":1023:1027   */\n      0x80\n        /* \"#utility.yul\":1011:1028   */\n      dup2\n      add\n        /* \"#utility.yul\":1058:1076   */\n      0xffffffffffffffff\n        /* \"#utility.yul\":1043:1077   */\n      dup2\n      gt\n        /* \"#utility.yul\":1079:1101   */\n      dup3\n      dup3\n      lt\n        /* \"#utility.yul\":1040:1102   */\n      or\n        /* \"#utility.yul\":1037:1125   */\n      iszero\n      tag_110\n      jumpi\n        /* \"#utility.yul\":1105:1123   */\n      tag_110\n      tag_98\n      jump\t// in\n    tag_110:\n        /* \"#utility.yul\":1141:1143   */\n      0x40\n        /* \"#utility.yul\":1134:1156   */\n      mstore\n        /* \"#utility.yul\":909:1162   */\n      swap1\n      jump\t// out\n        /* \"#utility.yul\":1167:1442   */\n    tag_100:\n        /* \"#utility.yul\":1238:1240   */\n      0x40\n        /* \"#utility.yul\":1232:1241   */\n      mload\n        /* \"#utility.yul\":1303:1305   */\n      0x1f\n        /* \"#utility.yul\":1284:1297   */\n      dup3\n      add\n      not(0x1f)\n        /* \"#utility.yul\":1280:1307   */\n      and\n        /* \"#utility.yul\":1268:1308   */\n      dup2\n      add\n        /* \"#utility.yul\":1338:1356   */\n      0xffffffffffffffff\n        /* \"#utility.yul\":1323:1357   */\n      dup2\n      gt\n        /* \"#utility.yul\":1359:1381   */\n      dup3\n      dup3\n      lt\n        /* \"#utility.yul\":1320:1382   */\n      or\n        /* \"#utility.yul\":1317:1405   */\n      iszero\n      tag_113\n      jumpi\n        /* \"#utility.yul\":1385:1403   */\n      tag_113\n      tag_98\n      jump\t// in\n    tag_113:\n        /* \"#utility.yul\":1421:1423   */\n      0x40\n        /* \"#utility.yul\":1414:1436   */\n      mstore\n        /* \"#utility.yul\":1167:1442   */\n      swap2\n      swap1\n      pop\n      jump\t// out\n        /* \"#utility.yul\":1447:2211   */\n    tag_25:\n        /* \"#utility.yul\":1516:1522   */\n      0x00\n        /* \"#utility.yul\":1547:1549   */\n      0x20\n        /* \"#utility.yul\":1590:1592   */\n      dup1\n        /* \"#utility.yul\":1578:1587   */\n      dup4\n        /* \"#utility.yul\":1569:1576   */\n      dup6\n        /* \"#utility.yul\":1565:1588   */\n      sub\n        /* \"#utility.yul\":1561:1593   */\n      slt\n        /* \"#utility.yul\":1558:1610   */\n      iszero\n      tag_115\n      jumpi\n        /* \"#utility.yul\":1606:1607   */\n      0x00\n        /* \"#utility.yul\":1603:1604   */\n      dup1\n        /* \"#utility.yul\":1596:1608   */\n      revert\n        /* \"#utility.yul\":1558:1610   */\n    tag_115:\n        /* \"#utility.yul\":1646:1655   */\n      dup3\n        /* \"#utility.yul\":1633:1656   */\n      calldataload\n        /* \"#utility.yul\":1675:1693   */\n      0xffffffffffffffff\n        /* \"#utility.yul\":1716:1718   */\n      dup1\n        /* \"#utility.yul\":1708:1714   */\n      dup3\n        /* \"#utility.yul\":1705:1719   */\n      gt\n        /* \"#utility.yul\":1702:1736   */\n      iszero\n      tag_116\n      jumpi\n        /* \"#utility.yul\":1732:1733   */\n      0x00\n        /* \"#utility.yul\":1729:1730   */\n      dup1\n        /* \"#utility.yul\":1722:1734   */\n      revert\n        /* \"#utility.yul\":1702:1736   */\n    tag_116:\n        /* \"#utility.yul\":1770:1776   */\n      dup2\n        /* \"#utility.yul\":1759:1768   */\n      dup6\n        /* \"#utility.yul\":1755:1777   */\n      add\n        /* \"#utility.yul\":1745:1777   */\n      swap2\n      pop\n        /* \"#utility.yul\":1815:1822   */\n      dup6\n        /* \"#utility.yul\":1808:1812   */\n      0x1f\n        /* \"#utility.yul\":1804:1806   */\n      dup4\n        /* \"#utility.yul\":1800:1813   */\n      add\n        /* \"#utility.yul\":1796:1823   */\n      slt\n        /* \"#utility.yul\":1786:1841   */\n      tag_117\n      jumpi\n        /* \"#utility.yul\":1837:1838   */\n      0x00\n        /* \"#utility.yul\":1834:1835   */\n      dup1\n        /* \"#utility.yul\":1827:1839   */\n      revert\n        /* \"#utility.yul\":1786:1841   */\n    tag_117:\n        /* \"#utility.yul\":1873:1875   */\n      dup2\n        /* \"#utility.yul\":1860:1876   */\n      calldataload\n        /* \"#utility.yul\":1895:1897   */\n      dup2\n        /* \"#utility.yul\":1891:1893   */\n      dup2\n        /* \"#utility.yul\":1888:1898   */\n      gt\n        /* \"#utility.yul\":1885:1921   */\n      iszero\n      tag_119\n      jumpi\n        /* \"#utility.yul\":1901:1919   */\n      tag_119\n      tag_98\n      jump\t// in\n    tag_119:\n        /* \"#utility.yul\":1943:1996   */\n      tag_120\n        /* \"#utility.yul\":1986:1988   */\n      0x1f\n        /* \"#utility.yul\":1967:1980   */\n      dup3\n      add\n      not(0x1f)\n        /* \"#utility.yul\":1963:1990   */\n      and\n        /* \"#utility.yul\":1959:1995   */\n      dup6\n      add\n        /* \"#utility.yul\":1943:1996   */\n      tag_100\n      jump\t// in\n    tag_120:\n        /* \"#utility.yul\":1930:1996   */\n      swap2\n      pop\n        /* \"#utility.yul\":2019:2021   */\n      dup1\n        /* \"#utility.yul\":2012:2017   */\n      dup3\n        /* \"#utility.yul\":2005:2022   */\n      mstore\n        /* \"#utility.yul\":2059:2066   */\n      dup7\n        /* \"#utility.yul\":2054:2056   */\n      dup5\n        /* \"#utility.yul\":2049:2051   */\n      dup3\n        /* \"#utility.yul\":2045:2047   */\n      dup6\n        /* \"#utility.yul\":2041:2052   */\n      add\n        /* \"#utility.yul\":2037:2057   */\n      add\n        /* \"#utility.yul\":2034:2067   */\n      gt\n        /* \"#utility.yul\":2031:2084   */\n      iszero\n      tag_121\n      jumpi\n        /* \"#utility.yul\":2080:2081   */\n      0x00\n        /* \"#utility.yul\":2077:2078   */\n      dup1\n        /* \"#utility.yul\":2070:2082   */\n      revert\n        /* \"#utility.yul\":2031:2084   */\n    tag_121:\n        /* \"#utility.yul\":2135:2137   */\n      dup1\n        /* \"#utility.yul\":2130:2132   */\n      dup5\n        /* \"#utility.yul\":2126:2128   */\n      dup5\n        /* \"#utility.yul\":2122:2133   */\n      add\n        /* \"#utility.yul\":2117:2119   */\n      dup6\n        /* \"#utility.yul\":2110:2115   */\n      dup5\n        /* \"#utility.yul\":2106:2120   */\n      add\n        /* \"#utility.yul\":2093:2138   */\n      calldatacopy\n        /* \"#utility.yul\":2179:2180   */\n      0x00\n        /* \"#utility.yul\":2158:2172   */\n      swap1\n      dup3\n      add\n        /* \"#utility.yul\":2154:2177   */\n      swap1\n      swap4\n      add\n        /* \"#utility.yul\":2147:2181   */\n      swap3\n      swap1\n      swap3\n      mstore\n      pop\n        /* \"#utility.yul\":2162:2167   */\n      swap4\n        /* \"#utility.yul\":1447:2211   */\n      swap3\n      pop\n      pop\n      pop\n      jump\t// out\n        /* \"#utility.yul\":2855:2986   */\n    tag_101:\n      sub(shl(0xa0, 0x01), 0x01)\n        /* \"#utility.yul\":2930:2961   */\n      dup2\n      and\n        /* \"#utility.yul\":2920:2962   */\n      dup2\n      eq\n        /* \"#utility.yul\":2910:2980   */\n      tag_88\n      jumpi\n        /* \"#utility.yul\":2976:2977   */\n      0x00\n        /* \"#utility.yul\":2973:2974   */\n      dup1\n        /* \"#utility.yul\":2966:2978   */\n      revert\n        /* \"#utility.yul\":2991:3238   */\n    tag_37:\n        /* \"#utility.yul\":3050:3056   */\n      0x00\n        /* \"#utility.yul\":3103:3105   */\n      0x20\n        /* \"#utility.yul\":3091:3100   */\n      dup3\n        /* \"#utility.yul\":3082:3089   */\n      dup5\n        /* \"#utility.yul\":3078:3101   */\n      sub\n        /* \"#utility.yul\":3074:3106   */\n      slt\n        /* \"#utility.yul\":3071:3123   */\n      iszero\n      tag_127\n      jumpi\n        /* \"#utility.yul\":3119:3120   */\n      0x00\n        /* \"#utility.yul\":3116:3117   */\n      dup1\n        /* \"#utility.yul\":3109:3121   */\n      revert\n        /* \"#utility.yul\":3071:3123   */\n    tag_127:\n        /* \"#utility.yul\":3158:3167   */\n      dup2\n        /* \"#utility.yul\":3145:3168   */\n      calldataload\n        /* \"#utility.yul\":3177:3208   */\n      tag_128\n        /* \"#utility.yul\":3202:3207   */\n      dup2\n        /* \"#utility.yul\":3177:3208   */\n      tag_101\n      jump\t// in\n    tag_128:\n        /* \"#utility.yul\":3227:3232   */\n      swap4\n        /* \"#utility.yul\":2991:3238   */\n      swap3\n      pop\n      pop\n      pop\n      jump\t// out\n        /* \"#utility.yul\":3584:3835   */\n    tag_48:\n        /* \"#utility.yul\":3654:3660   */\n      0x00\n        /* \"#utility.yul\":3707:3709   */\n      0x20\n        /* \"#utility.yul\":3695:3704   */\n      dup3\n        /* \"#utility.yul\":3686:3693   */\n      dup5\n        /* \"#utility.yul\":3682:3705   */\n      sub\n        /* \"#utility.yul\":3678:3710   */\n      slt\n        /* \"#utility.yul\":3675:3727   */\n      iszero\n      tag_131\n      jumpi\n        /* \"#utility.yul\":3723:3724   */\n      0x00\n        /* \"#utility.yul\":3720:3721   */\n      dup1\n        /* \"#utility.yul\":3713:3725   */\n      revert\n        /* \"#utility.yul\":3675:3727   */\n    tag_131:\n        /* \"#utility.yul\":3755:3764   */\n      dup2\n        /* \"#utility.yul\":3749:3765   */\n      mload\n        /* \"#utility.yul\":3774:3805   */\n      tag_128\n        /* \"#utility.yul\":3799:3804   */\n      dup2\n        /* \"#utility.yul\":3774:3805   */\n      tag_101\n      jump\t// in\n        /* \"#utility.yul\":3840:5221   */\n    tag_52:\n        /* \"#utility.yul\":3961:3967   */\n      0x00\n        /* \"#utility.yul\":3992:3994   */\n      0x20\n        /* \"#utility.yul\":4035:4037   */\n      dup1\n        /* \"#utility.yul\":4023:4032   */\n      dup4\n        /* \"#utility.yul\":4014:4021   */\n      dup6\n        /* \"#utility.yul\":4010:4033   */\n      sub\n        /* \"#utility.yul\":4006:4038   */\n      slt\n        /* \"#utility.yul\":4003:4055   */\n      iszero\n      tag_134\n      jumpi\n        /* \"#utility.yul\":4051:4052   */\n      0x00\n        /* \"#utility.yul\":4048:4049   */\n      dup1\n        /* \"#utility.yul\":4041:4053   */\n      revert\n        /* \"#utility.yul\":4003:4055   */\n    tag_134:\n        /* \"#utility.yul\":4084:4093   */\n      dup3\n        /* \"#utility.yul\":4078:4094   */\n      mload\n        /* \"#utility.yul\":4113:4131   */\n      0xffffffffffffffff\n        /* \"#utility.yul\":4154:4156   */\n      dup1\n        /* \"#utility.yul\":4146:4152   */\n      dup3\n        /* \"#utility.yul\":4143:4157   */\n      gt\n        /* \"#utility.yul\":4140:4174   */\n      iszero\n      tag_135\n      jumpi\n        /* \"#utility.yul\":4170:4171   */\n      0x00\n        /* \"#utility.yul\":4167:4168   */\n      dup1\n        /* \"#utility.yul\":4160:4172   */\n      revert\n        /* \"#utility.yul\":4140:4174   */\n    tag_135:\n        /* \"#utility.yul\":4208:4214   */\n      dup2\n        /* \"#utility.yul\":4197:4206   */\n      dup6\n        /* \"#utility.yul\":4193:4215   */\n      add\n        /* \"#utility.yul\":4183:4215   */\n      swap2\n      pop\n        /* \"#utility.yul\":4253:4260   */\n      dup6\n        /* \"#utility.yul\":4246:4250   */\n      0x1f\n        /* \"#utility.yul\":4242:4244   */\n      dup4\n        /* \"#utility.yul\":4238:4251   */\n      add\n        /* \"#utility.yul\":4234:4261   */\n      slt\n        /* \"#utility.yul\":4224:4279   */\n      tag_136\n      jumpi\n        /* \"#utility.yul\":4275:4276   */\n      0x00\n        /* \"#utility.yul\":4272:4273   */\n      dup1\n        /* \"#utility.yul\":4265:4277   */\n      revert\n        /* \"#utility.yul\":4224:4279   */\n    tag_136:\n        /* \"#utility.yul\":4304:4306   */\n      dup2\n        /* \"#utility.yul\":4298:4307   */\n      mload\n        /* \"#utility.yul\":4326:4328   */\n      dup2\n        /* \"#utility.yul\":4322:4324   */\n      dup2\n        /* \"#utility.yul\":4319:4329   */\n      gt\n        /* \"#utility.yul\":4316:4352   */\n      iszero\n      tag_138\n      jumpi\n        /* \"#utility.yul\":4332:4350   */\n      tag_138\n      tag_98\n      jump\t// in\n    tag_138:\n        /* \"#utility.yul\":4372:4408   */\n      tag_139\n        /* \"#utility.yul\":4404:4406   */\n      dup5\n        /* \"#utility.yul\":4399:4401   */\n      dup3\n        /* \"#utility.yul\":4396:4397   */\n      0x05\n        /* \"#utility.yul\":4392:4402   */\n      shl\n        /* \"#utility.yul\":4388:4407   */\n      add\n        /* \"#utility.yul\":4372:4408   */\n      tag_100\n      jump\t// in\n    tag_139:\n        /* \"#utility.yul\":4442:4457   */\n      dup2\n      dup2\n      mstore\n        /* \"#utility.yul\":4473:4485   */\n      dup5\n      dup2\n      add\n      swap3\n      pop\n        /* \"#utility.yul\":4524:4525   */\n      0x07\n        /* \"#utility.yul\":4520:4530   */\n      swap2\n      swap1\n      swap2\n      shl\n        /* \"#utility.yul\":4512:4531   */\n      dup4\n      add\n        /* \"#utility.yul\":4508:4536   */\n      dup5\n      add\n      swap1\n        /* \"#utility.yul\":4548:4567   */\n      dup8\n      dup3\n      gt\n        /* \"#utility.yul\":4545:4584   */\n      iszero\n      tag_140\n      jumpi\n        /* \"#utility.yul\":4580:4581   */\n      0x00\n        /* \"#utility.yul\":4577:4578   */\n      dup1\n        /* \"#utility.yul\":4570:4582   */\n      revert\n        /* \"#utility.yul\":4545:4584   */\n    tag_140:\n        /* \"#utility.yul\":4604:4615   */\n      swap3\n      dup5\n      add\n      swap3\n        /* \"#utility.yul\":4624:5191   */\n    tag_141:\n        /* \"#utility.yul\":4640:4646   */\n      dup2\n        /* \"#utility.yul\":4635:4638   */\n      dup5\n        /* \"#utility.yul\":4632:4647   */\n      lt\n        /* \"#utility.yul\":4624:5191   */\n      iszero\n      tag_143\n      jumpi\n        /* \"#utility.yul\":4722:4726   */\n      0x80\n        /* \"#utility.yul\":4716:4719   */\n      dup5\n        /* \"#utility.yul\":4707:4714   */\n      dup10\n        /* \"#utility.yul\":4703:4720   */\n      sub\n        /* \"#utility.yul\":4699:4727   */\n      slt\n        /* \"#utility.yul\":4696:4814   */\n      iszero\n      tag_144\n      jumpi\n        /* \"#utility.yul\":4768:4769   */\n      0x00\n        /* \"#utility.yul\":4797:4799   */\n      dup1\n        /* \"#utility.yul\":4793:4795   */\n      dup2\n        /* \"#utility.yul\":4786:4800   */\n      revert\n        /* \"#utility.yul\":4696:4814   */\n    tag_144:\n        /* \"#utility.yul\":4840:4862   */\n      tag_145\n      tag_99\n      jump\t// in\n    tag_145:\n        /* \"#utility.yul\":4889:4899   */\n      dup5\n      mload\n        /* \"#utility.yul\":4875:4900   */\n      dup2\n      mstore\n        /* \"#utility.yul\":4942:4954   */\n      dup6\n      dup6\n      add\n        /* \"#utility.yul\":4936:4955   */\n      mload\n        /* \"#utility.yul\":4920:4934   */\n      dup7\n      dup3\n      add\n        /* \"#utility.yul\":4913:4956   */\n      mstore\n        /* \"#utility.yul\":4979:4981   */\n      0x40\n        /* \"#utility.yul\":5023:5035   */\n      dup1\n      dup7\n      add\n        /* \"#utility.yul\":5017:5036   */\n      mload\n        /* \"#utility.yul\":5001:5015   */\n      swap1\n      dup3\n      add\n        /* \"#utility.yul\":4994:5037   */\n      mstore\n        /* \"#utility.yul\":5060:5062   */\n      0x60\n        /* \"#utility.yul\":5104:5116   */\n      dup1\n      dup7\n      add\n        /* \"#utility.yul\":5098:5117   */\n      mload\n        /* \"#utility.yul\":5082:5096   */\n      swap1\n      dup3\n      add\n        /* \"#utility.yul\":5075:5118   */\n      mstore\n        /* \"#utility.yul\":5131:5149   */\n      dup4\n      mstore\n        /* \"#utility.yul\":4666:4670   */\n      0x80\n        /* \"#utility.yul\":4657:4671   */\n      swap1\n      swap4\n      add\n      swap3\n        /* \"#utility.yul\":5169:5181   */\n      swap2\n      dup5\n      add\n      swap2\n        /* \"#utility.yul\":4624:5191   */\n      jump(tag_141)\n    tag_143:\n        /* \"#utility.yul\":5210:5215   */\n      swap8\n        /* \"#utility.yul\":3840:5221   */\n      swap7\n      pop\n      pop\n      pop\n      pop\n      pop\n      pop\n      pop\n      jump\t// out\n        /* \"#utility.yul\":5226:5353   */\n    tag_58:\n        /* \"#utility.yul\":5287:5297   */\n      0x4e487b71\n        /* \"#utility.yul\":5282:5285   */\n      0xe0\n        /* \"#utility.yul\":5278:5298   */\n      shl\n        /* \"#utility.yul\":5275:5276   */\n      0x00\n        /* \"#utility.yul\":5268:5299   */\n      mstore\n        /* \"#utility.yul\":5318:5322   */\n      0x32\n        /* \"#utility.yul\":5315:5316   */\n      0x04\n        /* \"#utility.yul\":5308:5323   */\n      mstore\n        /* \"#utility.yul\":5342:5346   */\n      0x24\n        /* \"#utility.yul\":5339:5340   */\n      0x00\n        /* \"#utility.yul\":5332:5347   */\n      revert\n        /* \"#utility.yul\":5358:5590   */\n    tag_62:\n        /* \"#utility.yul\":5397:5400   */\n      0x00\n        /* \"#utility.yul\":5418:5435   */\n      0x01\n      dup3\n      add\n        /* \"#utility.yul\":5415:5555   */\n      tag_148\n      jumpi\n        /* \"#utility.yul\":5477:5487   */\n      0x4e487b71\n        /* \"#utility.yul\":5472:5475   */\n      0xe0\n        /* \"#utility.yul\":5468:5488   */\n      shl\n        /* \"#utility.yul\":5465:5466   */\n      0x00\n        /* \"#utility.yul\":5458:5489   */\n      mstore\n        /* \"#utility.yul\":5512:5516   */\n      0x11\n        /* \"#utility.yul\":5509:5510   */\n      0x04\n        /* \"#utility.yul\":5502:5517   */\n      mstore\n        /* \"#utility.yul\":5540:5544   */\n      0x24\n        /* \"#utility.yul\":5537:5538   */\n      0x00\n        /* \"#utility.yul\":5530:5545   */\n      revert\n        /* \"#utility.yul\":5415:5555   */\n    tag_148:\n      pop\n        /* \"#utility.yul\":5582:5583   */\n      0x01\n        /* \"#utility.yul\":5571:5584   */\n      add\n      swap1\n        /* \"#utility.yul\":5358:5590   */\n      jump\t// out\n        /* \"#utility.yul\":5595:6143   */\n    tag_71:\n        /* \"#utility.yul\":5707:5711   */\n      0x00\n        /* \"#utility.yul\":5736:5738   */\n      0x20\n        /* \"#utility.yul\":5765:5767   */\n      dup1\n        /* \"#utility.yul\":5754:5763   */\n      dup4\n        /* \"#utility.yul\":5747:5768   */\n      mstore\n        /* \"#utility.yul\":5797:5803   */\n      dup4\n        /* \"#utility.yul\":5791:5804   */\n      mload\n        /* \"#utility.yul\":5840:5846   */\n      dup1\n        /* \"#utility.yul\":5835:5837   */\n      dup3\n        /* \"#utility.yul\":5824:5833   */\n      dup6\n        /* \"#utility.yul\":5820:5838   */\n      add\n        /* \"#utility.yul\":5813:5847   */\n      mstore\n        /* \"#utility.yul\":5865:5866   */\n      0x00\n        /* \"#utility.yul\":5875:6015   */\n    tag_150:\n        /* \"#utility.yul\":5889:5895   */\n      dup2\n        /* \"#utility.yul\":5886:5887   */\n      dup2\n        /* \"#utility.yul\":5883:5896   */\n      lt\n        /* \"#utility.yul\":5875:6015   */\n      iszero\n      tag_152\n      jumpi\n        /* \"#utility.yul\":5984:5998   */\n      dup6\n      dup2\n      add\n        /* \"#utility.yul\":5980:6003   */\n      dup4\n      add\n        /* \"#utility.yul\":5974:6004   */\n      mload\n        /* \"#utility.yul\":5950:5967   */\n      dup6\n      dup3\n      add\n        /* \"#utility.yul\":5969:5971   */\n      0x40\n        /* \"#utility.yul\":5946:5972   */\n      add\n        /* \"#utility.yul\":5939:6005   */\n      mstore\n        /* \"#utility.yul\":5904:5914   */\n      dup3\n      add\n        /* \"#utility.yul\":5875:6015   */\n      jump(tag_150)\n    tag_152:\n        /* \"#utility.yul\":5879:5882   */\n      pop\n        /* \"#utility.yul\":6064:6065   */\n      0x00\n        /* \"#utility.yul\":6059:6061   */\n      0x40\n        /* \"#utility.yul\":6050:6056   */\n      dup3\n        /* \"#utility.yul\":6039:6048   */\n      dup7\n        /* \"#utility.yul\":6035:6057   */\n      add\n        /* \"#utility.yul\":6031:6062   */\n      add\n        /* \"#utility.yul\":6024:6066   */\n      mstore\n        /* \"#utility.yul\":6134:6136   */\n      0x40\n        /* \"#utility.yul\":6127:6129   */\n      0x1f\n        /* \"#utility.yul\":6123:6130   */\n      not\n        /* \"#utility.yul\":6118:6120   */\n      0x1f\n        /* \"#utility.yul\":6110:6116   */\n      dup4\n        /* \"#utility.yul\":6106:6121   */\n      add\n        /* \"#utility.yul\":6102:6131   */\n      and\n        /* \"#utility.yul\":6091:6100   */\n      dup6\n        /* \"#utility.yul\":6087:6132   */\n      add\n        /* \"#utility.yul\":6083:6137   */\n      add\n        /* \"#utility.yul\":6075:6137   */\n      swap3\n      pop\n      pop\n      pop\n        /* \"#utility.yul\":5595:6143   */\n      swap3\n      swap2\n      pop\n      pop\n      jump\t// out\n        /* \"#utility.yul\":6148:6332   */\n    tag_75:\n        /* \"#utility.yul\":6218:6224   */\n      0x00\n        /* \"#utility.yul\":6271:6273   */\n      0x20\n        /* \"#utility.yul\":6259:6268   */\n      dup3\n        /* \"#utility.yul\":6250:6257   */\n      dup5\n        /* \"#utility.yul\":6246:6269   */\n      sub\n        /* \"#utility.yul\":6242:6274   */\n      slt\n        /* \"#utility.yul\":6239:6291   */\n      iszero\n      tag_154\n      jumpi\n        /* \"#utility.yul\":6287:6288   */\n      0x00\n        /* \"#utility.yul\":6284:6285   */\n      dup1\n        /* \"#utility.yul\":6277:6289   */\n      revert\n        /* \"#utility.yul\":6239:6291   */\n    tag_154:\n      pop\n        /* \"#utility.yul\":6310:6326   */\n      mload\n      swap2\n        /* \"#utility.yul\":6148:6332   */\n      swap1\n      pop\n      jump\t// out\n\n    auxdata: 0xa26469706673582212200b6cce2e2fc66805f9c56c37983dbc5ba0cfaf65646271d92391b17548fb940164736f6c63430008110033\n}\n",
				"bytecode": {
					"linkReferences": {},
					"object": "6080604052600180546001600160a01b03191673ad67fe66660fb8dfe9d6b1b4240d8650e30f601917905534801561003657600080fd5b5061004033610045565b610095565b600080546001600160a01b038381166001600160a01b0319831681178455604051919092169283917f8be0079c531659141344cd1fd0a4f28419497f9722a3daafe3b4186f6b6457e09190a35050565b6108ee806100a46000396000f3fe608060405234801561001057600080fd5b506004361061007d5760003560e01c80633d44abf11161005b5780633d44abf1146100ff578063715018a6146101455780638da5cb5b1461014d578063f2fde38b1461016857600080fd5b8063068b6bd51461008257806316638d591461008c57806334ece79d146100a8575b600080fd5b61008a61017b565b005b61009560035481565b6040519081526020015b60405180910390f35b6100df6100b63660046105bf565b600260208190526000918252604090912080546001820154928201546003909201549092919084565b60408051948552602085019390935291830152606082015260800161009f565b61011261010d366004610648565b610317565b60405161009f91908151815260208083015190820152604080830151908201526060918201519181019190915260800190565b61008a610483565b6000546040516001600160a01b03909116815260200161009f565b61008a6101763660046106f2565b610497565b610183610515565b60015460405163413b07e560e11b815260206004820152600c60248201526b4674736f526567697374727960a01b60448201526000916001600160a01b0316906382760fca90606401602060405180830381865afa1580156101e9573d6000803e3d6000fd5b505050506040513d601f19601f8201168201806040525081019061020d9190610716565b90506000816001600160a01b03166358f9296f6040518163ffffffff1660e01b8152600401600060405180830381865afa15801561024f573d6000803e3d6000fd5b505050506040513d6000823e601f3d908101601f191682016040526102779190810190610733565b8051600355905060005b81518110156103125781818151811061029c5761029c610814565b6020026020010151600260008484815181106102ba576102ba610814565b602002602001015160000151815260200190815260200160002060008201518160000155602082015181600101556040820151816002015560608201518160030155905050808061030a9061082a565b915050610281565b505050565b6103426040518060800160405280600081526020016000815260200160008152602001600081525090565b60015460405163413b07e560e11b815260206004820152600c60248201526b4674736f526567697374727960a01b60448201526000916001600160a01b0316906382760fca90606401602060405180830381865afa1580156103a8573d6000803e3d6000fd5b505050506040513d601f19601f820116820180604052508101906103cc9190610716565b90506000816001600160a01b031663e848da30856040518263ffffffff1660e01b81526004016103fc9190610851565b602060405180830381865afa158015610419573d6000803e3d6000fd5b505050506040513d601f19601f8201168201806040525081019061043d919061089f565b6000908152600260208181526040928390208351608081018552815481526001820154928101929092529182015492810192909252600301546060820152949350505050565b61048b610515565b610495600061056f565b565b61049f610515565b6001600160a01b0381166105095760405162461bcd60e51b815260206004820152602660248201527f4f776e61626c653a206e6577206f776e657220697320746865207a65726f206160448201526564647265737360d01b60648201526084015b60405180910390fd5b6105128161056f565b50565b6000546001600160a01b031633146104955760405162461bcd60e51b815260206004820181905260248201527f4f776e61626c653a2063616c6c6572206973206e6f7420746865206f776e65726044820152606401610500565b600080546001600160a01b038381166001600160a01b0319831681178455604051919092169283917f8be0079c531659141344cd1fd0a4f28419497f9722a3daafe3b4186f6b6457e09190a35050565b6000602082840312156105d157600080fd5b5035919050565b634e487b7160e01b600052604160045260246000fd5b6040516080810167ffffffffffffffff81118282101715610611576106116105d8565b60405290565b604051601f8201601f1916810167ffffffffffffffff81118282101715610640576106406105d8565b604052919050565b6000602080838503121561065b57600080fd5b823567ffffffffffffffff8082111561067357600080fd5b818501915085601f83011261068757600080fd5b813581811115610699576106996105d8565b6106ab601f8201601f19168501610617565b915080825286848285010111156106c157600080fd5b8084840185840137600090820190930192909252509392505050565b6001600160a01b038116811461051257600080fd5b60006020828403121561070457600080fd5b813561070f816106dd565b9392505050565b60006020828403121561072857600080fd5b815161070f816106dd565b6000602080838503121561074657600080fd5b825167ffffffffffffffff8082111561075e57600080fd5b818501915085601f83011261077257600080fd5b815181811115610784576107846105d8565b610792848260051b01610617565b818152848101925060079190911b8301840190878211156107b257600080fd5b928401925b8184101561080957608084890312156107d05760008081fd5b6107d86105ee565b84518152858501518682015260408086015190820152606080860151908201528352608090930192918401916107b7565b979650505050505050565b634e487b7160e01b600052603260045260246000fd5b60006001820161084a57634e487b7160e01b600052601160045260246000fd5b5060010190565b600060208083528351808285015260005b8181101561087e57858101830151858201604001528201610862565b506000604082860101526040601f19601f8301168501019250505092915050565b6000602082840312156108b157600080fd5b505191905056fea26469706673582212200b6cce2e2fc66805f9c56c37983dbc5ba0cfaf65646271d92391b17548fb940164736f6c63430008110033",
					"opcodes": "PUSH1 0x80 PUSH1 0x40 MSTORE PUSH1 0x1 DUP1 SLOAD PUSH1 0x1 PUSH1 0x1 PUSH1 0xA0 SHL SUB NOT AND PUSH20 0xAD67FE66660FB8DFE9D6B1B4240D8650E30F6019 OR SWAP1 SSTORE CALLVALUE DUP1 ISZERO PUSH2 0x36 JUMPI PUSH1 0x0 DUP1 REVERT JUMPDEST POP PUSH2 0x40 CALLER PUSH2 0x45 JUMP JUMPDEST PUSH2 0x95 JUMP JUMPDEST PUSH1 0x0 DUP1 SLOAD PUSH1 0x1 PUSH1 0x1 PUSH1 0xA0 SHL SUB DUP4 DUP2 AND PUSH1 0x1 PUSH1 0x1 PUSH1 0xA0 SHL SUB NOT DUP4 AND DUP2 OR DUP5 SSTORE PUSH1 0x40 MLOAD SWAP2 SWAP1 SWAP3 AND SWAP3 DUP4 SWAP2 PUSH32 0x8BE0079C531659141344CD1FD0A4F28419497F9722A3DAAFE3B4186F6B6457E0 SWAP2 SWAP1 LOG3 POP POP JUMP JUMPDEST PUSH2 0x8EE DUP1 PUSH2 0xA4 PUSH1 0x0 CODECOPY PUSH1 0x0 RETURN INVALID PUSH1 0x80 PUSH1 0x40 MSTORE CALLVALUE DUP1 ISZERO PUSH2 0x10 JUMPI PUSH1 0x0 DUP1 REVERT JUMPDEST POP PUSH1 0x4 CALLDATASIZE LT PUSH2 0x7D JUMPI PUSH1 0x0 CALLDATALOAD PUSH1 0xE0 SHR DUP1 PUSH4 0x3D44ABF1 GT PUSH2 0x5B JUMPI DUP1 PUSH4 0x3D44ABF1 EQ PUSH2 0xFF JUMPI DUP1 PUSH4 0x715018A6 EQ PUSH2 0x145 JUMPI DUP1 PUSH4 0x8DA5CB5B EQ PUSH2 0x14D JUMPI DUP1 PUSH4 0xF2FDE38B EQ PUSH2 0x168 JUMPI PUSH1 0x0 DUP1 REVERT JUMPDEST DUP1 PUSH4 0x68B6BD5 EQ PUSH2 0x82 JUMPI DUP1 PUSH4 0x16638D59 EQ PUSH2 0x8C JUMPI DUP1 PUSH4 0x34ECE79D EQ PUSH2 0xA8 JUMPI JUMPDEST PUSH1 0x0 DUP1 REVERT JUMPDEST PUSH2 0x8A PUSH2 0x17B JUMP JUMPDEST STOP JUMPDEST PUSH2 0x95 PUSH1 0x3 SLOAD DUP2 JUMP JUMPDEST PUSH1 0x40 MLOAD SWAP1 DUP2 MSTORE PUSH1 0x20 ADD JUMPDEST PUSH1 0x40 MLOAD DUP1 SWAP2 SUB SWAP1 RETURN JUMPDEST PUSH2 0xDF PUSH2 0xB6 CALLDATASIZE PUSH1 0x4 PUSH2 0x5BF JUMP JUMPDEST PUSH1 0x2 PUSH1 0x20 DUP2 SWAP1 MSTORE PUSH1 0x0 SWAP2 DUP3 MSTORE PUSH1 0x40 SWAP1 SWAP2 KECCAK256 DUP1 SLOAD PUSH1 0x1 DUP3 ADD SLOAD SWAP3 DUP3 ADD SLOAD PUSH1 0x3 SWAP1 SWAP3 ADD SLOAD SWAP1 SWAP3 SWAP2 SWAP1 DUP5 JUMP JUMPDEST PUSH1 0x40 DUP1 MLOAD SWAP5 DUP6 MSTORE PUSH1 0x20 DUP6 ADD SWAP4 SWAP1 SWAP4 MSTORE SWAP2 DUP4 ADD MSTORE PUSH1 0x60 DUP3 ADD MSTORE PUSH1 0x80 ADD PUSH2 0x9F JUMP JUMPDEST PUSH2 0x112 PUSH2 0x10D CALLDATASIZE PUSH1 0x4 PUSH2 0x648 JUMP JUMPDEST PUSH2 0x317 JUMP JUMPDEST PUSH1 0x40 MLOAD PUSH2 0x9F SWAP2 SWAP1 DUP2 MLOAD DUP2 MSTORE PUSH1 0x20 DUP1 DUP4 ADD MLOAD SWAP1 DUP3 ADD MSTORE PUSH1 0x40 DUP1 DUP4 ADD MLOAD SWAP1 DUP3 ADD MSTORE PUSH1 0x60 SWAP2 DUP3 ADD MLOAD SWAP2 DUP2 ADD SWAP2 SWAP1 SWAP2 MSTORE PUSH1 0x80 ADD SWAP1 JUMP JUMPDEST PUSH2 0x8A PUSH2 0x483 JUMP JUMPDEST PUSH1 0x0 SLOAD PUSH1 0x40 MLOAD PUSH1 0x1 PUSH1 0x1 PUSH1 0xA0 SHL SUB SWAP1 SWAP2 AND DUP2 MSTORE PUSH1 0x20 ADD PUSH2 0x9F JUMP JUMPDEST PUSH2 0x8A PUSH2 0x176 CALLDATASIZE PUSH1 0x4 PUSH2 0x6F2 JUMP JUMPDEST PUSH2 0x497 JUMP JUMPDEST PUSH2 0x183 PUSH2 0x515 JUMP JUMPDEST PUSH1 0x1 SLOAD PUSH1 0x40 MLOAD PUSH4 0x413B07E5 PUSH1 0xE1 SHL DUP2 MSTORE PUSH1 0x20 PUSH1 0x4 DUP3 ADD MSTORE PUSH1 0xC PUSH1 0x24 DUP3 ADD MSTORE PUSH12 0x4674736F5265676973747279 PUSH1 0xA0 SHL PUSH1 0x44 DUP3 ADD MSTORE PUSH1 0x0 SWAP2 PUSH1 0x1 PUSH1 0x1 PUSH1 0xA0 SHL SUB AND SWAP1 PUSH4 0x82760FCA SWAP1 PUSH1 0x64 ADD PUSH1 0x20 PUSH1 0x40 MLOAD DUP1 DUP4 SUB DUP2 DUP7 GAS STATICCALL ISZERO DUP1 ISZERO PUSH2 0x1E9 JUMPI RETURNDATASIZE PUSH1 0x0 DUP1 RETURNDATACOPY RETURNDATASIZE PUSH1 0x0 REVERT JUMPDEST POP POP POP POP PUSH1 0x40 MLOAD RETURNDATASIZE PUSH1 0x1F NOT PUSH1 0x1F DUP3 ADD AND DUP3 ADD DUP1 PUSH1 0x40 MSTORE POP DUP2 ADD SWAP1 PUSH2 0x20D SWAP2 SWAP1 PUSH2 0x716 JUMP JUMPDEST SWAP1 POP PUSH1 0x0 DUP2 PUSH1 0x1 PUSH1 0x1 PUSH1 0xA0 SHL SUB AND PUSH4 0x58F9296F PUSH1 0x40 MLOAD DUP2 PUSH4 0xFFFFFFFF AND PUSH1 0xE0 SHL DUP2 MSTORE PUSH1 0x4 ADD PUSH1 0x0 PUSH1 0x40 MLOAD DUP1 DUP4 SUB DUP2 DUP7 GAS STATICCALL ISZERO DUP1 ISZERO PUSH2 0x24F JUMPI RETURNDATASIZE PUSH1 0x0 DUP1 RETURNDATACOPY RETURNDATASIZE PUSH1 0x0 REVERT JUMPDEST POP POP POP POP PUSH1 0x40 MLOAD RETURNDATASIZE PUSH1 0x0 DUP3 RETURNDATACOPY PUSH1 0x1F RETURNDATASIZE SWAP1 DUP2 ADD PUSH1 0x1F NOT AND DUP3 ADD PUSH1 0x40 MSTORE PUSH2 0x277 SWAP2 SWAP1 DUP2 ADD SWAP1 PUSH2 0x733 JUMP JUMPDEST DUP1 MLOAD PUSH1 0x3 SSTORE SWAP1 POP PUSH1 0x0 JUMPDEST DUP2 MLOAD DUP2 LT ISZERO PUSH2 0x312 JUMPI DUP2 DUP2 DUP2 MLOAD DUP2 LT PUSH2 0x29C JUMPI PUSH2 0x29C PUSH2 0x814 JUMP JUMPDEST PUSH1 0x20 MUL PUSH1 0x20 ADD ADD MLOAD PUSH1 0x2 PUSH1 0x0 DUP5 DUP5 DUP2 MLOAD DUP2 LT PUSH2 0x2BA JUMPI PUSH2 0x2BA PUSH2 0x814 JUMP JUMPDEST PUSH1 0x20 MUL PUSH1 0x20 ADD ADD MLOAD PUSH1 0x0 ADD MLOAD DUP2 MSTORE PUSH1 0x20 ADD SWAP1 DUP2 MSTORE PUSH1 0x20 ADD PUSH1 0x0 KECCAK256 PUSH1 0x0 DUP3 ADD MLOAD DUP2 PUSH1 0x0 ADD SSTORE PUSH1 0x20 DUP3 ADD MLOAD DUP2 PUSH1 0x1 ADD SSTORE PUSH1 0x40 DUP3 ADD MLOAD DUP2 PUSH1 0x2 ADD SSTORE PUSH1 0x60 DUP3 ADD MLOAD DUP2 PUSH1 0x3 ADD SSTORE SWAP1 POP POP DUP1 DUP1 PUSH2 0x30A SWAP1 PUSH2 0x82A JUMP JUMPDEST SWAP2 POP POP PUSH2 0x281 JUMP JUMPDEST POP POP POP JUMP JUMPDEST PUSH2 0x342 PUSH1 0x40 MLOAD DUP1 PUSH1 0x80 ADD PUSH1 0x40 MSTORE DUP1 PUSH1 0x0 DUP2 MSTORE PUSH1 0x20 ADD PUSH1 0x0 DUP2 MSTORE PUSH1 0x20 ADD PUSH1 0x0 DUP2 MSTORE PUSH1 0x20 ADD PUSH1 0x0 DUP2 MSTORE POP SWAP1 JUMP JUMPDEST PUSH1 0x1 SLOAD PUSH1 0x40 MLOAD PUSH4 0x413B07E5 PUSH1 0xE1 SHL DUP2 MSTORE PUSH1 0x20 PUSH1 0x4 DUP3 ADD MSTORE PUSH1 0xC PUSH1 0x24 DUP3 ADD MSTORE PUSH12 0x4674736F5265676973747279 PUSH1 0xA0 SHL PUSH1 0x44 DUP3 ADD MSTORE PUSH1 0x0 SWAP2 PUSH1 0x1 PUSH1 0x1 PUSH1 0xA0 SHL SUB AND SWAP1 PUSH4 0x82760FCA SWAP1 PUSH1 0x64 ADD PUSH1 0x20 PUSH1 0x40 MLOAD DUP1 DUP4 SUB DUP2 DUP7 GAS STATICCALL ISZERO DUP1 ISZERO PUSH2 0x3A8 JUMPI RETURNDATASIZE PUSH1 0x0 DUP1 RETURNDATACOPY RETURNDATASIZE PUSH1 0x0 REVERT JUMPDEST POP POP POP POP PUSH1 0x40 MLOAD RETURNDATASIZE PUSH1 0x1F NOT PUSH1 0x1F DUP3 ADD AND DUP3 ADD DUP1 PUSH1 0x40 MSTORE POP DUP2 ADD SWAP1 PUSH2 0x3CC SWAP2 SWAP1 PUSH2 0x716 JUMP JUMPDEST SWAP1 POP PUSH1 0x0 DUP2 PUSH1 0x1 PUSH1 0x1 PUSH1 0xA0 SHL SUB AND PUSH4 0xE848DA30 DUP6 PUSH1 0x40 MLOAD DUP3 PUSH4 0xFFFFFFFF AND PUSH1 0xE0 SHL DUP2 MSTORE PUSH1 0x4 ADD PUSH2 0x3FC SWAP2 SWAP1 PUSH2 0x851 JUMP JUMPDEST PUSH1 0x20 PUSH1 0x40 MLOAD DUP1 DUP4 SUB DUP2 DUP7 GAS STATICCALL ISZERO DUP1 ISZERO PUSH2 0x419 JUMPI RETURNDATASIZE PUSH1 0x0 DUP1 RETURNDATACOPY RETURNDATASIZE PUSH1 0x0 REVERT JUMPDEST POP POP POP POP PUSH1 0x40 MLOAD RETURNDATASIZE PUSH1 0x1F NOT PUSH1 0x1F DUP3 ADD AND DUP3 ADD DUP1 PUSH1 0x40 MSTORE POP DUP2 ADD SWAP1 PUSH2 0x43D SWAP2 SWAP1 PUSH2 0x89F JUMP JUMPDEST PUSH1 0x0 SWAP1 DUP2 MSTORE PUSH1 0x2 PUSH1 0x20 DUP2 DUP2 MSTORE PUSH1 0x40 SWAP3 DUP4 SWAP1 KECCAK256 DUP4 MLOAD PUSH1 0x80 DUP2 ADD DUP6 MSTORE DUP2 SLOAD DUP2 MSTORE PUSH1 0x1 DUP3 ADD SLOAD SWAP3 DUP2 ADD SWAP3 SWAP1 SWAP3 MSTORE SWAP2 DUP3 ADD SLOAD SWAP3 DUP2 ADD SWAP3 SWAP1 SWAP3 MSTORE PUSH1 0x3 ADD SLOAD PUSH1 0x60 DUP3 ADD MSTORE SWAP5 SWAP4 POP POP POP POP JUMP JUMPDEST PUSH2 0x48B PUSH2 0x515 JUMP JUMPDEST PUSH2 0x495 PUSH1 0x0 PUSH2 0x56F JUMP JUMPDEST JUMP JUMPDEST PUSH2 0x49F PUSH2 0x515 JUMP JUMPDEST PUSH1 0x1 PUSH1 0x1 PUSH1 0xA0 SHL SUB DUP2 AND PUSH2 0x509 JUMPI PUSH1 0x40 MLOAD PUSH3 0x461BCD PUSH1 0xE5 SHL DUP2 MSTORE PUSH1 0x20 PUSH1 0x4 DUP3 ADD MSTORE PUSH1 0x26 PUSH1 0x24 DUP3 ADD MSTORE PUSH32 0x4F776E61626C653A206E6577206F776E657220697320746865207A65726F2061 PUSH1 0x44 DUP3 ADD MSTORE PUSH6 0x646472657373 PUSH1 0xD0 SHL PUSH1 0x64 DUP3 ADD MSTORE PUSH1 0x84 ADD JUMPDEST PUSH1 0x40 MLOAD DUP1 SWAP2 SUB SWAP1 REVERT JUMPDEST PUSH2 0x512 DUP2 PUSH2 0x56F JUMP JUMPDEST POP JUMP JUMPDEST PUSH1 0x0 SLOAD PUSH1 0x1 PUSH1 0x1 PUSH1 0xA0 SHL SUB AND CALLER EQ PUSH2 0x495 JUMPI PUSH1 0x40 MLOAD PUSH3 0x461BCD PUSH1 0xE5 SHL DUP2 MSTORE PUSH1 0x20 PUSH1 0x4 DUP3 ADD DUP2 SWAP1 MSTORE PUSH1 0x24 DUP3 ADD MSTORE PUSH32 0x4F776E61626C653A2063616C6C6572206973206E6F7420746865206F776E6572 PUSH1 0x44 DUP3 ADD MSTORE PUSH1 0x64 ADD PUSH2 0x500 JUMP JUMPDEST PUSH1 0x0 DUP1 SLOAD PUSH1 0x1 PUSH1 0x1 PUSH1 0xA0 SHL SUB DUP4 DUP2 AND PUSH1 0x1 PUSH1 0x1 PUSH1 0xA0 SHL SUB NOT DUP4 AND DUP2 OR DUP5 SSTORE PUSH1 0x40 MLOAD SWAP2 SWAP1 SWAP3 AND SWAP3 DUP4 SWAP2 PUSH32 0x8BE0079C531659141344CD1FD0A4F28419497F9722A3DAAFE3B4186F6B6457E0 SWAP2 SWAP1 LOG3 POP POP JUMP JUMPDEST PUSH1 0x0 PUSH1 0x20 DUP3 DUP5 SUB SLT ISZERO PUSH2 0x5D1 JUMPI PUSH1 0x0 DUP1 REVERT JUMPDEST POP CALLDATALOAD SWAP2 SWAP1 POP JUMP JUMPDEST PUSH4 0x4E487B71 PUSH1 0xE0 SHL PUSH1 0x0 MSTORE PUSH1 0x41 PUSH1 0x4 MSTORE PUSH1 0x24 PUSH1 0x0 REVERT JUMPDEST PUSH1 0x40 MLOAD PUSH1 0x80 DUP2 ADD PUSH8 0xFFFFFFFFFFFFFFFF DUP2 GT DUP3 DUP3 LT OR ISZERO PUSH2 0x611 JUMPI PUSH2 0x611 PUSH2 0x5D8 JUMP JUMPDEST PUSH1 0x40 MSTORE SWAP1 JUMP JUMPDEST PUSH1 0x40 MLOAD PUSH1 0x1F DUP3 ADD PUSH1 0x1F NOT AND DUP2 ADD PUSH8 0xFFFFFFFFFFFFFFFF DUP2 GT DUP3 DUP3 LT OR ISZERO PUSH2 0x640 JUMPI PUSH2 0x640 PUSH2 0x5D8 JUMP JUMPDEST PUSH1 0x40 MSTORE SWAP2 SWAP1 POP JUMP JUMPDEST PUSH1 0x0 PUSH1 0x20 DUP1 DUP4 DUP6 SUB SLT ISZERO PUSH2 0x65B JUMPI PUSH1 0x0 DUP1 REVERT JUMPDEST DUP3 CALLDATALOAD PUSH8 0xFFFFFFFFFFFFFFFF DUP1 DUP3 GT ISZERO PUSH2 0x673 JUMPI PUSH1 0x0 DUP1 REVERT JUMPDEST DUP2 DUP6 ADD SWAP2 POP DUP6 PUSH1 0x1F DUP4 ADD SLT PUSH2 0x687 JUMPI PUSH1 0x0 DUP1 REVERT JUMPDEST DUP2 CALLDATALOAD DUP2 DUP2 GT ISZERO PUSH2 0x699 JUMPI PUSH2 0x699 PUSH2 0x5D8 JUMP JUMPDEST PUSH2 0x6AB PUSH1 0x1F DUP3 ADD PUSH1 0x1F NOT AND DUP6 ADD PUSH2 0x617 JUMP JUMPDEST SWAP2 POP DUP1 DUP3 MSTORE DUP7 DUP5 DUP3 DUP6 ADD ADD GT ISZERO PUSH2 0x6C1 JUMPI PUSH1 0x0 DUP1 REVERT JUMPDEST DUP1 DUP5 DUP5 ADD DUP6 DUP5 ADD CALLDATACOPY PUSH1 0x0 SWAP1 DUP3 ADD SWAP1 SWAP4 ADD SWAP3 SWAP1 SWAP3 MSTORE POP SWAP4 SWAP3 POP POP POP JUMP JUMPDEST PUSH1 0x1 PUSH1 0x1 PUSH1 0xA0 SHL SUB DUP2 AND DUP2 EQ PUSH2 0x512 JUMPI PUSH1 0x0 DUP1 REVERT JUMPDEST PUSH1 0x0 PUSH1 0x20 DUP3 DUP5 SUB SLT ISZERO PUSH2 0x704 JUMPI PUSH1 0x0 DUP1 REVERT JUMPDEST DUP2 CALLDATALOAD PUSH2 0x70F DUP2 PUSH2 0x6DD JUMP JUMPDEST SWAP4 SWAP3 POP POP POP JUMP JUMPDEST PUSH1 0x0 PUSH1 0x20 DUP3 DUP5 SUB SLT ISZERO PUSH2 0x728 JUMPI PUSH1 0x0 DUP1 REVERT JUMPDEST DUP2 MLOAD PUSH2 0x70F DUP2 PUSH2 0x6DD JUMP JUMPDEST PUSH1 0x0 PUSH1 0x20 DUP1 DUP4 DUP6 SUB SLT ISZERO PUSH2 0x746 JUMPI PUSH1 0x0 DUP1 REVERT JUMPDEST DUP3 MLOAD PUSH8 0xFFFFFFFFFFFFFFFF DUP1 DUP3 GT ISZERO PUSH2 0x75E JUMPI PUSH1 0x0 DUP1 REVERT JUMPDEST DUP2 DUP6 ADD SWAP2 POP DUP6 PUSH1 0x1F DUP4 ADD SLT PUSH2 0x772 JUMPI PUSH1 0x0 DUP1 REVERT JUMPDEST DUP2 MLOAD DUP2 DUP2 GT ISZERO PUSH2 0x784 JUMPI PUSH2 0x784 PUSH2 0x5D8 JUMP JUMPDEST PUSH2 0x792 DUP5 DUP3 PUSH1 0x5 SHL ADD PUSH2 0x617 JUMP JUMPDEST DUP2 DUP2 MSTORE DUP5 DUP2 ADD SWAP3 POP PUSH1 0x7 SWAP2 SWAP1 SWAP2 SHL DUP4 ADD DUP5 ADD SWAP1 DUP8 DUP3 GT ISZERO PUSH2 0x7B2 JUMPI PUSH1 0x0 DUP1 REVERT JUMPDEST SWAP3 DUP5 ADD SWAP3 JUMPDEST DUP2 DUP5 LT ISZERO PUSH2 0x809 JUMPI PUSH1 0x80 DUP5 DUP10 SUB SLT ISZERO PUSH2 0x7D0 JUMPI PUSH1 0x0 DUP1 DUP2 REVERT JUMPDEST PUSH2 0x7D8 PUSH2 0x5EE JUMP JUMPDEST DUP5 MLOAD DUP2 MSTORE DUP6 DUP6 ADD MLOAD DUP7 DUP3 ADD MSTORE PUSH1 0x40 DUP1 DUP7 ADD MLOAD SWAP1 DUP3 ADD MSTORE PUSH1 0x60 DUP1 DUP7 ADD MLOAD SWAP1 DUP3 ADD MSTORE DUP4 MSTORE PUSH1 0x80 SWAP1 SWAP4 ADD SWAP3 SWAP2 DUP5 ADD SWAP2 PUSH2 0x7B7 JUMP JUMPDEST SWAP8 SWAP7 POP POP POP POP POP POP POP JUMP JUMPDEST PUSH4 0x4E487B71 PUSH1 0xE0 SHL PUSH1 0x0 MSTORE PUSH1 0x32 PUSH1 0x4 MSTORE PUSH1 0x24 PUSH1 0x0 REVERT JUMPDEST PUSH1 0x0 PUSH1 0x1 DUP3 ADD PUSH2 0x84A JUMPI PUSH4 0x4E487B71 PUSH1 0xE0 SHL PUSH1 0x0 MSTORE PUSH1 0x11 PUSH1 0x4 MSTORE PUSH1 0x24 PUSH1 0x0 REVERT JUMPDEST POP PUSH1 0x1 ADD SWAP1 JUMP JUMPDEST PUSH1 0x0 PUSH1 0x20 DUP1 DUP4 MSTORE DUP4 MLOAD DUP1 DUP3 DUP6 ADD MSTORE PUSH1 0x0 JUMPDEST DUP2 DUP2 LT ISZERO PUSH2 0x87E JUMPI DUP6 DUP2 ADD DUP4 ADD MLOAD DUP6 DUP3 ADD PUSH1 0x40 ADD MSTORE DUP3 ADD PUSH2 0x862 JUMP JUMPDEST POP PUSH1 0x0 PUSH1 0x40 DUP3 DUP7 ADD ADD MSTORE PUSH1 0x40 PUSH1 0x1F NOT PUSH1 0x1F DUP4 ADD AND DUP6 ADD ADD SWAP3 POP POP POP SWAP3 SWAP2 POP POP JUMP JUMPDEST PUSH1 0x0 PUSH1 0x20 DUP3 DUP5 SUB SLT ISZERO PUSH2 0x8B1 JUMPI PUSH1 0x0 DUP1 REVERT JUMPDEST POP MLOAD SWAP2 SWAP1 POP JUMP INVALID LOG2 PUSH5 0x6970667358 0x22 SLT KECCAK256 SIGNEXTEND PUSH13 0xCE2E2FC66805F9C56C37983DBC JUMPDEST LOG0 0xCF 0xAF PUSH6 0x646271D92391 0xB1 PUSH22 0x48FB940164736F6C6343000811003300000000000000 "
				},
				"gasEstimates": {
					"creation": {
						"codeDepositCost": "457200",
						"executionCost": "50570",
						"totalCost": "507770"
					},
					"external": {
						"currentPriceInfo(uint256)": "8894",
						"latestPriceForToken(string)": "infinite",
						"owner()": "2345",
						"priceInfosCount()": "2307",
						"refreshPrices()": "infinite",
						"renounceOwnership()": "infinite",
						"transferOwnership(address)": "infinite"
					}
				},
				"methodIdentifiers": {
					"currentPriceInfo(uint256)": "34ece79d",
					"latestPriceForToken(string)": "3d44abf1",
					"owner()": "8da5cb5b",
					"priceInfosCount()": "16638d59",
					"refreshPrices()": "068b6bd5",
					"renounceOwnership()": "715018a6",
					"transferOwnership(address)": "f2fde38b"
				}
			},
			"storageLayout": {
				"storage": [
					{
						"astId": 1585,
						"contract": "src/UnfuckGPTPriceData.sol:UnfuckGPTPriceData",
						"label": "_owner",
						"offset": 0,
						"slot": "0",
						"type": "t_address"
					},
					{
						"astId": 1806,
						"contract": "src/UnfuckGPTPriceData.sol:UnfuckGPTPriceData",
						"label": "contractRegistry",
						"offset": 0,
						"slot": "1",
						"type": "t_contract(IFlareContractRegistry)1577"
					},
					{
						"astId": 1811,
						"contract": "src/UnfuckGPTPriceData.sol:UnfuckGPTPriceData",
						"label": "currentPriceInfo",
						"offset": 0,
						"slot": "2",
						"type": "t_mapping(t_uint256,t_struct(PriceInfo)422_storage)"
					},
					{
						"astId": 1813,
						"contract": "src/UnfuckGPTPriceData.sol:UnfuckGPTPriceData",
						"label": "priceInfosCount",
						"offset": 0,
						"slot": "3",
						"type": "t_uint256"
					}
				],
				"types": {
					"t_address": {
						"encoding": "inplace",
						"label": "address",
						"numberOfBytes": "20"
					},
					"t_contract(IFlareContractRegistry)1577": {
						"encoding": "inplace",
						"label": "contract IFlareContractRegistry",
						"numberOfBytes": "20"
					},
					"t_mapping(t_uint256,t_struct(PriceInfo)422_storage)": {
						"encoding": "mapping",
						"key": "t_uint256",
						"label": "mapping(uint256 => struct IFtsoRegistry.PriceInfo)",
						"numberOfBytes": "32",
						"value": "t_struct(PriceInfo)422_storage"
					},
					"t_struct(PriceInfo)422_storage": {
						"encoding": "inplace",
						"label": "struct IFtsoRegistry.PriceInfo",
						"members": [
							{
								"astId": 415,
								"contract": "src/UnfuckGPTPriceData.sol:UnfuckGPTPriceData",
								"label": "ftsoIndex",
								"offset": 0,
								"slot": "0",
								"type": "t_uint256"
							},
							{
								"astId": 417,
								"contract": "src/UnfuckGPTPriceData.sol:UnfuckGPTPriceData",
								"label": "price",
								"offset": 0,
								"slot": "1",
								"type": "t_uint256"
							},
							{
								"astId": 419,
								"contract": "src/UnfuckGPTPriceData.sol:UnfuckGPTPriceData",
								"label": "decimals",
								"offset": 0,
								"slot": "2",
								"type": "t_uint256"
							},
							{
								"astId": 421,
								"contract": "src/UnfuckGPTPriceData.sol:UnfuckGPTPriceData",
								"label": "timestamp",
								"offset": 0,
								"slot": "3",
								"type": "t_uint256"
							}
						],
						"numberOfBytes": "128"
					},
					"t_uint256": {
						"encoding": "inplace",
						"label": "uint256",
						"numberOfBytes": "32"
					}
				}
			},
			"userdoc": {
				"kind": "user",
				"methods": {},
				"version": 1
			}
		}
	}
}